:10000000008000205D3C0000893C0000893C00002D
:10001000893C0000893C0000893C0000893C0000CC
:10002000893C0000893C0000893C0000893C0000BC
:10003000893C0000883C0000893C0000893C0000AD
:10004000893C0000893C0000893C0000893C00009C
:10005000893C0000893C0000DB0B0000650E0000BD
:10006000893C0000893C0000893C0000893C00007C
:10007000D90A0000893C0000893C0000FD2D0000E9
:10008000893C0000893C0000893C0000893C00005C
:10009000893C000015030000893C0000893C0000F9
:1000A000893C0000E5040000BD040000893C00001C
:1000B000893C0000893C0000893C0000AD840000C0
:1000C0005D84000059840000A97B0000A984000021
:1000D00061840000818400006584000009850000BF
:1000E000356A00007D6A0000F1840000893C000050
:1000F000893C0000893C0000893C0000893C0000EC
:10010000893C0000893C0000893C0000893C0000DB
:10011000893C0000893C0000893C0000893C0000CB
:10012000893C0000893C0000893C0000893C0000BB
:10013000893C0000893C0000893C0000893C0000AB
:1001400010B5054C237833B9044B13B1044800E0D3
:1001500000BF0123237010BD8002002000000000BA
:100160004CCF000008B5034B1BB10349034800E026
:1001700000BF08BD00000000840200204CCF00003A
:10018000154B002B08BF134B9D46A3F5803A002169
:100190008B460F461348144A121A08F0C6FD0F4B3F
:1001A000002B00D098470E4B002B00D09847002022
:1001B000002104000D000D48002802D00C4800E08A
:1001C00000BF08F083FD2000290003F055F908F076
:1001D00069FD00BF00000800008000200000000052
:1001E00000000000800200203818002000000000FD
:1001F0000000000080B584B000AF78603960214B0A
:100200001B7883F00103DBB2002B01D01E4B34E0DE
:100210007B68002B01D11D4B2FE001F075FDB8600C
:100220000023FB6022E01A4AFB681B0113440C33D5
:100230001B7883F00103DBB2002B14D0FA687B68D3
:100240001A60134AFB681B0113440C3301221A7015
:100250000F4AFB681B01134400221A60B86801F0C2
:1002600063FD002309E0FB680133FB60FB68072B9B
:10027000D9DDB86801F058FD064B18461037BD4669
:1002800080BD00BF9C020020028000F0018000F0D1
:10029000A0020020048000F080B584B000AF194BAC
:1002A0001B687B6000233B7101F02EFDB860164B8C
:1002B0001B78002B04D0B86801F036FD134B1CE00E
:1002C000114B01221A70B86801F02EFD0023FB606B
:1002D00009E00F4AFB681B0113440C3300221A701B
:1002E000FB680133FB60FB68072BF2DD0423FB7125
:1002F0003B1D184601F0EAFF002318461037BD46A3
:1003000080BD00BF9C9C00009C020020038000F088
:10031000A002002080B586B000AF344B1B6DFB609F
:10032000324B5B6DFA681340FB60FB68002B00DA10
:10033000FEE700237B6101233B614FE0FA683B69E4
:100340001340002B44D0294B03F5015310333A6975
:100350001A607B691B01264A1344BB60BB681B689B
:10036000002B35D0BB689B685A1CBB689A60BB6881
:100370001B68BA689168BA685268786998470346FA
:10038000002B14BF01230023DBB283F00103DBB297
:10039000FB71FB7903F00103FB71BB685B7B012BF5
:1003A00016D1FB79002B13D0124A7B695B011344F1
:1003B00003F1080213796FF3410313710D4A7B694E
:1003C0005B01134403F1180213796FF341031371B6
:1003D0007B6901337B613B695B003B617B69072B78
:1003E000ACD900BF1837BD4680BD00BF0000044037
:1003F000A00200202003002080B483B000AF78600A
:10040000054B03F5105320337A681A6000BF0C3790
:10041000BD465DF8047B704700C0034080B483B0E4
:1004200000AF074BD3F824347B60054BD3F820246E
:100430007B68134018460C37BD465DF8047B704757
:1004400000C0034080B485B000AF78607B68FB607B
:10045000FB6893FAA3F3BB60BB68B3FA83F3DBB228
:1004600018461437BD465DF8047B704780B584B0EC
:1004700000AF786019E07868FFF7E4FFF8600122C8
:10048000FB6802FA03F3DB431A467B6813407B6088
:10049000094AFB6852F82330BB60BB68002B04D0CC
:1004A000FB68DAB2BB68104698477B68002BE2D144
:1004B00000BF1037BD4680BD2004002080B582B04B
:1004C00000AFFFF7ABFF024645F2555313407B6088
:1004D0007868FFF791FF7868FFF7C8FF00BF08371B
:1004E000BD4680BD80B582B000AFFFF797FF0246E2
:1004F0004AF6AA2313407B607868FFF77DFF78688F
:10050000FFF7B4FF00BF0837BD4680BD80B58AB095
:1005100000AF0346FB71FB7903F00103002B0ED003
:10052000544B1B889BB201339AB2524B1A8000F095
:100530005BF9514B1B68002B01D000F03DF9FB79B2
:1005400003F00203002B00F0918000233B6200F0D7
:1005500018FAF861494B1B68FA69D31A3B6201F03B
:10056000D3FB786260E03B6ABB61434B1B687B61F5
:10057000414B1B683B61414AFB6913600FE07B699B
:100580001A793B691B799A4201D93B697B613B69C6
:100590005B69BA69D31ABB613B699B683B613B6984
:1005A000002B04D03B695B69BA699A42E7D2786A4A
:1005B00001F0BAFB7B695B693A6AD31A3B627B69DB
:1005C00000225A6101F0A0FB7862786900F0B6F869
:1005D000786A01F0A9FB7B691B69002B0BD001F045
:1005E00093FB78627B691B691946786900F048F8CB
:1005F000786A01F099FB7B69DB68002B06D07B6988
:10060000DB687A69126811467869984700F0B9F991
:10061000F860FA68FB69D31A3A6A13443B62FB68D4
:10062000FB6101F071FB7862134B1B68002B05D056
:10063000114B1B685B693A6A9A4294D20E4B1B6855
:10064000002B0DD00C4B1B6859690B4B1B683A6A89
:100650008A1A5A61094AFB69136000F0ADF802E09A
:10066000022000F00BFA786A01F05EFB00BF283729
:10067000BD4680BD600400206404002068040020A2
:1006800080B487B000AF786039603B687B617B687D
:100690007A695A61284B1B68002B40D000233B61CC
:1006A000254B1B68FB600CE0FB685B697A69D31A19
:1006B0007B617B687A695A61FB683B61FB689B6878
:1006C000FB60FB68002B13D0FB685B697A699A4278
:1006D000EAD2FB685B69002BE6D0FB685B697A694C
:1006E0009A4205D17B681A79FB681B799A42DBD85C
:1006F0003B69002B03D03B697A689A6002E00E4A9E
:100700007B6813607B68FA689A60FB68002B0CD0EA
:10071000FB685A697B69D21AFB685A6105E0064A90
:100720007B6813607B6800229A6000BF1C37BD465F
:100730005DF8047B704700BF6404002080B485B07E
:1007400000AF78600023FB601A4B1B68BB6004E0BD
:10075000BB68FB60BB689B68BB60BB68002B03D0B9
:10076000BA687B689A42F3D1BA687B689A4201D032
:10077000022319E0FB68002B04D07B689A68FB68B1
:100780009A6003E07B689B680A4A13607B689B68F9
:10079000002B08D07B689B6859697B685A697B6825
:1007A0009B680A445A61002318461437BD465DF819
:1007B000047B70476404002080B582B000AF084B12
:1007C0001B685A69074B1B6813447B60022000F0CA
:1007D00035F9786800F0E4F800BF0837BD4680BD01
:1007E000640400206804002080B582B000AF00F0EF
:1007F000C8F87860164B1B68002B22D0154B1B687D
:100800007A68D31A3B60124B1B685B693A689A425C
:100810000BD80F4B1B6859690D4B1B683A688A1A35
:100820005A610C4A7B6813600EE0094B1B685B69D8
:100830007A68D31A074A1360054B1B6800225A6175
:1008400002E0044A7B68136000BF0837BD4680BDE4
:10085000640400206804002080B483B000AF786096
:100860004FF090417A6813465B0013449B000B44A1
:1008700034331B6818460C37BD465DF8047B70475F
:1008800080B483B000AF786039604FF090417A68EF
:1008900013465B0013449B000B4434333A681A60E0
:1008A00000BF0C37BD465DF8047B704780B582B051
:1008B00000AF78607868FFF7CFFF03461846083727
:1008C000BD4680BD80B582B000AF786039603968C0
:1008D0007868FFF7D5FF00BF0837BD4680BD80B4FC
:1008E00000AF00BF4FF090439B6A03F00803002B5A
:1008F000F8D14FF090431B6A1846BD465DF8047B63
:10090000704780B483B000AF78604FF0904303F538
:10091000005314337A681A6000BF0C37BD465DF887
:10092000047B704780B483B000AF78604FF0904391
:100930009A697B68DB434FF0904113408B6100BFA5
:100940000C37BD465DF8047B704780B483B000AFC0
:1009500078604FF090439A694FF090417B68134361
:100960008B6100BF0C37BD465DF8047B704780B4D7
:1009700000AF4FF090435B691846BD465DF8047BBD
:10098000704780B500AFFFF7AAFF0346184680BD49
:1009900080B500AF0120FFF789FF0346184680BDF0
:1009A00080B586B000AF7860FFF7EBFF3861FFF7E6
:1009B000EFFFF8607B687B61FFF7D9FF034603F028
:1009C0004003002B0AD13969F86800F0B3F80346F8
:1009D000022B03D8FA683B699A4219D139697869C0
:1009E00000F0A8F80346012B02D83B6902337B6173
:1009F0007B69B3F1FF3F2CBF0122002252429B1AB8
:100A00007B6179690120FFF75DFF022000F016F895
:100A1000094B1B78002B0AD04FF09043DB6B4FF053
:100A2000904243F00203D363034B00221A7000BFCD
:100A30001837BD4680BD00BF0000002080B584B0DF
:100A400000AF0346FB710023FB60FB7903F0010359
:100A5000002B03D0FB6843F00103FB60FB7903F03C
:100A60000203002B03D0FB6843F04003FB60F868EF
:100A7000FFF76BFF00BF1037BD4680BD80B584B067
:100A800000AF0346FB710023FB60FB7903F0010319
:100A9000002B03D0FB6843F00103FB60FB7903F0FC
:100AA0000203002B0ED0FB6843F04003FB60094BB0
:100AB00001221A704FF09043DB6B4FF0904223F00D
:100AC0000303D363F868FFF72DFF00BF1037BD465F
:100AD00080BD00BF0000002080B584B000AF0023BF
:100AE000FB7301F011F9B860FFF741FF78607B6894
:100AF00003F00103002B03D0FB7B43F00103FB73E6
:100B00007B6803F04003002B03D0FB7B43F0020320
:100B1000FB737B6803F051031846FFF7F2FEFB7B83
:100B20001846FFF7F3FCB86801F0FEF800BF103775
:100B3000BD4680BD80B483B000AF786039607A680C
:100B40003B68D31A18460C37BD465DF8047B7047E6
:100B500080B483B000AF78604FF0402303F50153B9
:100B600024337A681A6000BF0C37BD465DF8047BF9
:100B7000704780B483B000AF78604FF0402303F536
:100B8000015328337A681A6000BF0C37BD465DF800
:100B9000047B704780B483B000AF78604FF040238F
:100BA00003F5835308337A681A6000BF0C37BD46DB
:100BB0005DF8047B704780B483B000AF4FF04023F2
:100BC0009B6E7B604FF040235A6E7B681340184643
:100BD0000C37BD465DF8047B704780B500AF00F070
:100BE00003F800BF80BD000080B582B000AFFFF702
:100BF000E2FF78607B6803F08043002B1CD0214B20
:100C00001B681B68002B12D01E4B1B681B683B60C7
:100C10001C4B1B6808220021184608F086F800F0DB
:100C2000E3F803461A463B680021104698474FF008
:100C30008040FFF78DFF1EE07B68002B1BDA124B14
:100C40001B681B68002B12D00F4B1B681B683B6096
:100C50000D4B1B6808220021184608F066F800F0CA
:100C6000C3F803461A463B680121104698474FF0E7
:100C70000040FFF76DFF00F017F800BF0837BD46D2
:100C800080BD00BFC0040020BC04002080B483B03D
:100C900000AF78607B68A3F2111318460C37BD468D
:100CA0005DF8047B7047000080B582B000AF002380
:100CB0007B6024E0484A7B6852F83330002B1BD01D
:100CC000464B1B681B68002B06D17B68DB00424A41
:100CD0001344424A13600FE03F4A7B68DB00134431
:100CE0001A793E4B1B681B799A4205D97B68DB0059
:100CF000394A1344394A13607B6801337B607B684F
:100D0000042BD7DD00237B6024E0354A7B6852F852
:100D10003330002B1BD0334B1B681B68002B06D1D4
:100D20007B68DB002E4A13442E4A13600FE02C4AE6
:100D30007B68DB0013441A792A4B1B681B799A42A3
:100D400005D27B68DB00264A1344264A13607B6881
:100D500001337B607B68042BD7DD204B1B681B684D
:100D6000002B14D04FF040239B6F23F0FF7323F42C
:100D700080331A4A12681279120411464FF0402249
:100D80000B4393674FF00040FFF704FF03E04FF081
:100D90000040FFF7EEFE134B1B681B68002B13D0BF
:100DA0004FF040239B6F23F4FF7323F001030D4AA0
:100DB0001268127911464FF040220B4393674FF0AF
:100DC0008040FFF7E7FE03E04FF08040FFF7D1FEE1
:100DD00000BF0837BD4680BD6C040020BC04002065
:100DE00094040020C004002080B582B000AF4FF012
:100DF0004023D3F888309B08C3F308037B604FF08F
:100E00004023D3F888309B08C3F308033B607A681B
:100E10003B689A42EBD17868FFF738FF03465BB234
:100E200018460837BD4680BD80B483B000AF7860F7
:100E300039607B6803F5005314333A681A6000BFC9
:100E40000C37BD465DF8047B704780B483B000AFBB
:100E500078607B685B6918460C37BD465DF8047B9B
:100E60007047000080B582B000AF0A48FFF7EDFF81
:100E700078607B6803F01003002B06D01021054832
:100E8000FFF7D2FF044B01221A7000BF0837BD469E
:100E900080BD00BF00800440C404002080B500AFC6
:100EA00001F0ACFC0346184680BD80B487B000AFAB
:100EB000F860B9607A607B68002B04D0FB6803F5AA
:100EC00080537B6103E0FB6803F500537B610122E3
:100ED000BB689A407B691A6000BF1C37BD465DF84D
:100EE000047B704780B483B000AF786039607B6862
:100EF0001A683B6822FA03F303F0010318460C3723
:100F0000BD465DF8047B704780B500AF00BF04218B
:100F10000348FFF7E7FF0346002BF8D100BF80BD71
:100F20008440004080B500AFFFF7EEFF4FF0402354
:100F3000D3F884309B0903F00303DBB2184680BD6D
:100F400080B584B000AF03460A46FB8013467B7130
:100F50000023FB60FB885B099BB2002B11D0FB8850
:100F60005B099BB2012B02D10D4BFB6009E0FB88B2
:100F70005B099BB2022B02D10A4BFB6001E00A4BDA
:100F8000FB60FB8803F01F03BB607B791A46B968DE
:100F9000F868FFF78AFF00BF1037BD4680BD00BF6D
:100FA00064800040688000406082004090B585B059
:100FB00000AF0346FB800023FB60FB883E2B00F064
:100FC000F2803E2B35DC2B2B00F0AA802B2B19DC7A
:100FD000232B00F09980232B0DDC202B00F0838045
:100FE000202B02DC002B7ED0EBE0212B00F08C804C
:100FF000222B78D0E5E0292B00F3C080282B80F24B
:101000008380A6E0312B08DC2F2B7DDA2D2B00F01E
:10101000C3802D2B00F38480B7E03C2B00F3CA8003
:101020003A2B71DA382B00F0A280392B00F098802F
:10103000C7E0B3F5007F5BD0B3F5007F20DC522B17
:1010400000F08780522B0ADC4D2B4CD04D2B02DC5C
:101050003F2B59D0B5E04F2BC0F2B38043E0802B3B
:101060003CD0802B04DC603B012B00F2AA803AE0EC
:10107000B3F5807F00F08980B3F5C07F33D0A0E066
:10108000B3F5A06F73D0B3F5A06F13DCB3F5607F39
:1010900053D0B3F5607F06DCB3F5207F34D0B3F5D1
:1010A000407F3DD08DE0B3F5806F52D0B3F5906FA7
:1010B00056D086E0B3F5D06F6ED0B3F5D06F06DCB6
:1010C000B3F5B06F5AD0B3F5C06F5ED079E0B3F529
:1010D000E06F68D0B3F5F06F6CD072E001F066FBA2
:1010E0000346FB606EE001F089FB0346FB6069E0AC
:1010F00001F05CFB04464FF4007000F013F9034666
:10110000B4FBF3F3FB605DE001F078FB04464FF4C1
:10111000207000F007F90346B4FBF3F3FB6051E0E5
:1011200001F06CFB04464FF4207000F0FBF803461E
:10113000B4FBF3F35B08FB6044E001F037FB0446CB
:101140004FF4607000F0EEF80346B4FBF3F3FB607D
:1011500038E007F10C030021184600F0D7FB31E01E
:1011600007F10C030021184600F032F82AE007F1DD
:101170000C030021184600F083F823E007F10C036C
:101180000021184600F0B8FC1CE007F10C03002118
:10119000184600F0F5FB15E007F10C030021184696
:1011A00000F04AFD0EE007F10C030021184600F0A4
:1011B000FDFC07E007F10C030021184600F01AFCC3
:1011C00000E000BFFB6818461437BD4690BD000024
:1011D00080B584B000AF786039600023FB60274B96
:1011E000D3F8243103F00703013B052B32D801A2C9
:1011F00052F823F00D120000251200003D120000ED
:1012000049120000191200003112000001F02AFBFF
:10121000F8600523FB7220E001F024FBF860062350
:10122000FB721AE001F012FBF8600323FB7214E07A
:1012300001F00CFBF8600423FB720EE001F026FBCA
:10124000F8600223FB7208E001F018FBF860072346
:10125000FB7202E00023FB7200BF7B68002B02D010
:101260007B68FA681A603B68002B02D03B68FA7A08
:101270001A7000BF1037BD4680BD00BF008000401F
:1012800080B582B000AF78603960124BD3F820325D
:1012900003F00303012B02D0022B05D009E03968CB
:1012A000786800F033FB11E03968786800F068FB7B
:1012B0000CE07B68002B02D07B6800221A603B6840
:1012C000002B02D03B6800221A7000BF00BF083715
:1012D000BD4680BD0080004080B400AF054B03F5E3
:1012E000835310334FF480321A6000BFBD465DF85F
:1012F000047B70470080004080B500AF8020FFF77E
:1013000055FE0246054B9A4206D8054B03F501539C
:1013100030334FF480321A6000BF80BD005A620241
:101320000080004080B485B000AF0346FB800023FE
:10133000FB60FB88B3F5007F1ED0B3F5007F05DCB2
:10134000002B0AD0B3F5C07F07D024E0B3F5207F8F
:101350001AD0B3F5607F07D01DE0134B1B6F1B0B3A
:1013600003F00F03FB6016E00F4BD3F880301B092E
:1013700003F00303FB600EE00B4BD3F890301B0E21
:1013800003F01F03FB6006E0074B1B6F9B0A03F093
:101390000103FB6000BFFB68013318461437BD46EC
:1013A0005DF8047B704700BF0080004090B583B0BB
:1013B00000AF03463960FB80FB88B3F5007F55D052
:1013C000B3F5007F05DC002B0AD0B3F5C07F07D052
:1013D00070E0B3F5207F5CD0B3F5607F30D069E07A
:1013E0003B68012B0AD03B68022B07D03B68042BDB
:1013F00004D03B68082B01D03B68102B00BF00F0E5
:101400000FFC00F0AFFBFFF767FF2C4B1B6F23F4C3
:1014100070423B68013B1B03284913430B67FFF7EE
:101420003DFD0446FFF77EFD0346C3F10203194666
:10143000204600F055FA00F09FFBFFF75DFF39E012
:101440003B68012B04D03B68022B01D03B68042B86
:1014500000BF1A4BD3F8803023F030023B68013BC9
:101460001B0116491343C1F8803023E03B68002B71
:1014700002D03B68202B00BF104BD3F8903023F0F4
:10148000F8523B68013B1B060C491343C1F89030EE
:1014900010E03B68012B01D03B68022B00BF074BDB
:1014A0001B6F23F480623B68013B9B02034913439B
:1014B0000B6700BF00BF0C37BD4690BD00800040E9
:1014C00090B585B000AF03460A46FB8013467B719A
:1014D0000023FB600023FB72FB88B3F5807F00F0E4
:1014E000FC80B3F5807F21DC2D2B00F05F812D2B5C
:1014F0000DDC2A2B00F0BE802A2B04DC243B032BBE
:1015000000F2E681CDE02C2B00F0E780E0E13D2BFE
:1015100000F0FF803D2B03DC382B00F0A181D7E1E8
:101520003E2B00F0B981802B35D0D1E1B3F5C06FEF
:1015300000F0D380B3F5C06F14DCB3F5906F00F00A
:101540000481B3F5906F04DCB3F5806F00F0A980DF
:10155000BEE1B3F5A06F00F08381B3F5B06F00F08A
:101560008980B5E1B3F5F06F00F0D380B3F5F06F8B
:1015700008DCB3F5D06F00F01981B3F5E06F00F02F
:101580008B81A5E1B3F5006F00F0DF80B3F5086F44
:1015900000F036819CE17B79023B052B30D801A21B
:1015A00052F823F0FB150000C315000001160000DF
:1015B000BD15000001160000F51500000223FB60B8
:1015C0001FE00323FB60B24B03F5835304334FF456
:1015D00000221A60AF4B9B6A03F00203002B14BF7A
:1015E00001230023FB72AB4B03F581530833012227
:1015F0001A6006E00423FB6003E00123FB6000E0C7
:1016000000BF0121022000F023FC00F009FB00F0E4
:10161000A9FAFFF761FE9E4B1B6F23F007029C495E
:10162000FB6813430B67FFF739FC0446FFF77AFCAE
:101630000346C3F102031946204600F051F9012187
:10164000002000F0DBFB00F097FAFFF755FEFB7A75
:1016500083F00103DBB2002B0AD07B79032B00D08F
:1016600007E08C4B03F50053283301221A6000E099
:1016700000BF2EE17B79022B05D00D2B00D005E0B9
:101680000123FB6002E00223FB6000BF804BD3F824
:10169000803123F003027E49FB681343C1F8803197
:1016A00017E17B79032B07D0052B02D0022B06D044
:1016B00008E00123FB6005E00223FB6002E0032356
:1016C000FB6000BF724BD3F8203123F00302704956
:1016D000FB681343C1F82031FBE07B79092B04D070
:1016E0000A2B08D0082B03D008E00123FB6005E09B
:1016F0000223FB6002E00323FB6000BF644BD3F8CE
:10170000403123F003026249FB681343C1F84031C2
:10171000DFE07B79092B04D00A2B08D0082B03D0FB
:1017200008E00123FB6005E00223FB6002E00323E5
:10173000FB6000BF564BD3F8603123F003025449DD
:10174000FB681343C1F86031C3E07B79023B052B92
:1017500020D801A252F823F07D170000771700006F
:101760008F17000071170000891700008317000011
:101770000123FB600FE00223FB600CE00323FB600E
:1017800009E00423FB6006E00523FB6003E0062379
:10179000FB6000E000BF3E4BD3F8243123F007028A
:1017A0003B49FB681343C1F8243192E07B79083B45
:1017B000042B19D801A252F823F000BFD71700005C
:1017C000D1170000DD170000E9170000E317000043
:1017D0000123FB6009E00223FB6006E00323FB60BA
:1017E00003E00423FB6000E000BF294BD3F8003284
:1017F00023F007022649FB681343C1F8003268E072
:101800007B79013B072B1FD801A252F823F000BFC0
:101810004318000049180000311800004918000062
:1018200049180000491800003D1800003718000052
:101830000123FB6009E00223FB6006E00323FB6059
:1018400003E00023FB6000E000BF114BD3F8003140
:1018500023F003020E49FB681343C1F8003138E05E
:101860007B790D2B02D00E2B03D005E00123FB600A
:1018700002E00223FB6000BF054BD3F8203223F0C7
:1018800003020349FB681343C1F8203221E000BF83
:101890000080004000C000407B79092B04D00A2B57
:1018A00008D0082B03D008E00123FB6005E00223E9
:1018B000FB6002E00323FB6000BF084BD3F840321B
:1018C00023F003020549FB681343C1F8403200E0EE
:1018D00000BF00BF1437BD4690BD00BF0080004070
:1018E00080B582B000AF786039603B68002B04DDC2
:1018F0000121786800F0B8F803E00021786800F072
:10190000B3F800BF0837BD4680BD000080B584B085
:1019100000AF786039600023FB60184BD3F82031AA
:1019200003F00303022B09D0032B0DD0012B11D19F
:1019300000F098FFF8600523FB720EE000F086FFD0
:10194000F8600323FB7208E000F0A0FFF8600223B8
:10195000FB7202E00023FB7200BF7B68002B02D009
:101960007B68FA681A603B68002B02D03B68FA7A01
:101970001A7000BF1037BD4680BD00BF0080004018
:1019800080B584B000AF786039600023FB60184BED
:10199000D3F8403103F00303022B09D0032B0DD001
:1019A000012B11D100F07CFFF8600923FB720EE0DF
:1019B00000F088FFF8600823FB7208E000F079FF70
:1019C000F8600A23FB7202E00023FB7200BF7B6811
:1019D000002B02D07B68FA681A603B68002B02D0AB
:1019E0003B68FA7A1A7000BF1037BD4680BD00BF51
:1019F0000080004080B584B000AF7860396000237B
:101A0000FB60184BD3F8603103F00303022B09D0BD
:101A1000032B0DD0012B11D100F042FFF8600923F8
:101A2000FB720EE000F04EFFF8600823FB7208E046
:101A300000F03FFFF8600A23FB7202E00023FB7214
:101A400000BF7B68002B02D07B68FA681A603B6895
:101A5000002B02D03B68FA7A1A7000BF1037BD46DF
:101A600080BD00BF0080004080B584B000AF7860CA
:101A700039601E4B03F5835308334FF400321A606C
:101A80000020FFF74FFC02467B6802FB03F37B60FC
:101A9000174BDB6903F48033B3F5803F0CBF0123A0
:101AA0000023FB72124B41F67132DA63104B9B68D4
:101AB00023F44013FB607B680E4A934207D93B68CE
:101AC000002B04DCFB6843F48013FB6000E000BFE4
:101AD000074AFB689360FB7A002B02D0044B00227C
:101AE000DA6300BF1037BD4680BD00BF00800040F4
:101AF00000000340005A620280B584B000AF7860F5
:101B000039600023BB60164BD3F8803103F0030328
:101B1000012B02D0022B09D00FE007F108030021AE
:101B20001846FFF7F3FE0D23FB7309E000F0AEFE4D
:101B30000346BB600223FB7302E00023FB7300BF7C
:101B40007B68002B02D0BA687B681A603B68002B68
:101B500002D03B68FA7B1A7000BF1037BD4680BDCB
:101B60000080004080B500AF02214FF42070FFF7E5
:101B70001DFC00BF80BD000080B582B000AF022315
:101B80007B604FF4C070FFF711FA0246064B9A4291
:101B900001D801237B6079684FF42070FFF706FCC1
:101BA00000BF0837BD4680BD80F0FA0280B584B022
:101BB00000AF786039600023FB60184BD3F84032E7
:101BC00003F00303022B09D0032B0DD0012B11D1FD
:101BD00000F066FEF8600923FB720EE000F072FE72
:101BE000F8600823FB7208E000F063FEF8600A2347
:101BF000FB7202E00023FB7200BF7B68002B02D067
:101C00007B68FA681A603B68002B02D03B68FA7A5E
:101C10001A7000BF1037BD4680BD00BF0080004075
:101C200080B500AF00F008FE034600211846FFF71C
:101C30001BFF00BF80BD000080B584B000AF78609E
:101C400039600023FB60204BD3F8003203F0070318
:101C5000013B032B24D801A252F823F06D1C000095
:101C6000791C0000851C0000911C000000F018FE8B
:101C7000F8600923FB7216E000F024FEF8600823E8
:101C8000FB7210E000F015FEF8600A23FB720AE018
:101C900000F0B4FD03469B0AFB600C23FB7202E0DC
:101CA0000023FB7200BF7B68002B02D07B68FA68C0
:101CB0001A603B68002B02D03B68FA7A1A7000BFAA
:101CC0001037BD4680BD00BF0080004080B483B0A7
:101CD00000AFEFF310833B603B687B6072B67B68BC
:101CE00018460C37BD465DF8047B704780B483B05E
:101CF00000AF78607B68002B00D162B600BF0C3764
:101D0000BD465DF8047B704780B483B000AFEFF34D
:101D100010833B603B687B6072B67B6818460C376B
:101D2000BD465DF8047B704780B483B000AF786037
:101D30007B68002B00D162B600BF0C37BD465DF852
:101D4000047B704780B483B000AF786039607B68F3
:101D50001A683B6822FA03F303F0010318460C37B4
:101D6000BD465DF8047B704780B400AF034B044A66
:101D70001A6400BFBD465DF8047B7047004009400F
:101D80003254FFFF80B400AF044B4AF6CD321A64E0
:101D900000BFBD465DF8047B704700BF00400940AE
:101DA00080B500AF00BF04210348FFF7CBFF034617
:101DB000002BF8D100BF80BD8440004080B500AF4B
:101DC000FFF7EEFF4FF04023D3F884309B0903F078
:101DD0000303DBB2184680BD80B483B000AF034676
:101DE000FB71FB79013B4FF4806202FA03F3184662
:101DF0000C37BD465DF8047B7047000080B584B0A9
:101E000000AF78600B46FB707B68002B03D100F0BD
:101E1000CDFCF86001E07B68FB600B4B1B78002B6E
:101E200009D0FB68094A934205D8FB78194601207E
:101E300000F00EF804E0FB781946022000F008F8E4
:101E400000BF1037BD4680BDC8040020005A6202A2
:101E500090B587B000AF03460A46FB711346BB71CD
:101E6000FFF7ACFF03461A46FB79934236D000F0E9
:101E70009DFC78617B693B61FB79012B03D10121DA
:101E80007869FFF72DFDFFF721FFF8604FF0402440
:101E9000FB791846FFF7A0FF0346236703E04FF0E6
:101EA0004023D3F884304FF04023D3F8843003F03C
:101EB0001003002B07D04FF04023D3F8843003F0F9
:101EC0002003002BEBD0F868FFF710FFFB79022B03
:101ED00005D100217869FFF703FD00E000BF1C3742
:101EE000BD4690BD80B584B000AF7860284B03F547
:101EF000835304334FF000421A60264B03F580539E
:101F0000043301221A60234B5B6C012B0CBF0123AD
:101F10000023FB73FFF736FF7B685B785B004FF0B5
:101F2000402243F00103D3631A4B9B6823F07402F1
:101F30007B689B781B0113437A68D278002A01D012
:101F4000042200E00022134913438B607B681B7955
:101F50001B027A68927911460E4A0B4313617B6823
:101F60005B791B027A68D27911460A4A0B435361A6
:101F70007B681B78184600F00FF8FB7B002B01D024
:101F8000FFF7F2FE012318461037BD4680BD00BFA3
:101F9000008000400040094080B584B000AF034697
:101FA000FB71284B03F5835304334FF000421A6052
:101FB000254B03F58053043301221A60224B5B6CDE
:101FC000012B0CBF01230023FB73FFF7DBFEFB7922
:101FD000002B13D11C4B03F50053083301221A6068
:101FE00000BF194BDB6A03F00103002BF9D0164B3D
:101FF00003F50053043301221A6019E000BF124BAD
:10200000DB6A03F00803002BF9D10F4B03F50053F3
:10201000243320221A600C4B03F58053083301222D
:102020001A6000BF084B5B6A03F02003002BF9D055
:10203000FB7B002B01D0FFF797FE00BF1037BD469A
:1020400080BD00BF008000400040094080B483B0E4
:1020500000AF03463960FB71FB79002B07D0FB7999
:10206000012B04D0FB79022B01D0FB79032B012239
:102070003B6802FA03F30949FA79184613465B00F4
:1020800013441B010B4403F500531033186000BFC9
:102090000C37BD465DF8047B704700BF00C00340AD
:1020A00080B483B000AF03463960FB71FB79002B2D
:1020B00007D0FB79012B04D0FB79022B01D0FB79EF
:1020C000032B01223B6802FA03F30949FA79184607
:1020D00013465B0013441B010B4403F5805310337C
:1020E000186000BF0C37BD465DF8047B704700BF29
:1020F00000C0034080B584B000AFB9607B60034688
:10210000FB731346BB73FB7B002B07D0FB7B012BC0
:1021100004D0FB7B022B01D0FB7B032BBB7B002B72
:102120000DD07B68002B05D0FB7BB9681846FFF704
:10213000B7FF04E0FB7BB9681846FFF787FFBB6871
:10214000072B20D82D49FA7B13465B0013441B0153
:102150000B4404331A68BB689B000F2101FA03F398
:10216000DB431340B97BBA68920001FA02F21146D0
:102170002248FA7B194313465B0013441B010344B6
:102180000433196025E01D49FA7B13465B001344B4
:102190001B010B440C331A68BB6803F18043083BF6
:1021A0009B000F2101FA03F3DB4302EA0301BA7B30
:1021B000BB6803F18043083B9B0002FA03F30F481E
:1021C000FA7B194313465B0013441B0103440C3391
:1021D0001960BB7B002B0DD17B68002B05D0FB7BEE
:1021E000B9681846FFF75CFF04E0FB7BB968184646
:1021F000FFF72CFF00BF1037BD4680BD00C0034075
:1022000080B483B000AF0346FB7197F90730002B11
:102210000BDBFB7903F01F02074997F907305B09D5
:10222000012000FA02F241F8232000BF0C37BD461E
:102230005DF8047B704700BF00E100E080B483B02C
:1022400000AF0346FB7197F90730002B0CDBFB79DD
:1022500003F01F02074997F907305B09012000FAD4
:1022600002F2603341F8232000BF0C37BD465DF811
:10227000047B704700E100E080B483B000AF034608
:102280003960FB7197F90730002B0ADB3B68DAB243
:102290000C4997F907301201D2B20B4483F800239E
:1022A0000AE03B68DAB20849FB7903F00F03043B0C
:1022B0001201D2B20B441A7600BF0C37BD465DF84E
:1022C000047B704700E100E000ED00E080B584B0E1
:1022D00000AF786001212020FEF732FE012121208D
:1022E000FEF72EFE1A4B01225A607B681B781B06F4
:1022F000FB60174AFB6893607B685B781B047A6815
:1023000092781A43124B9A61114BFF229A62104B3A
:1023100000229A630E4B00221A640D4B4FF00042CC
:102320005A650B4B03F5015310334FF0FF321A601F
:102330001520FFF783FF7B68DB7819461520FFF730
:102340009BFF1520FFF75CFF00BF1037BD4680BD27
:102350000000044080B485B000AF7860114B03F5F5
:10236000835304334FF480321A600F4B5B69FB6078
:10237000FB689B09DBB203F03F03DAB27B689A701B
:10238000FB68DBB203F03F03DAB27B685A70FB688C
:102390001B0BDAB27B681A7000BF1437BD465DF8BC
:1023A000047B70470080004000C0074080B483B0C9
:1023B00000AF78600B46FB707B680E4A934204D1F5
:1023C0000D4AFB78C2F88C3107E07B680B4A9342D8
:1023D00003D1094AFB78C2F89C317B68DB6D43F07E
:1023E00080027B68DA6500BF0C37BD465DF8047B70
:1023F000704700BF00C00540008003400000064059
:1024000080B586B000AFF860B9607A60FB70BB68D9
:10241000002B04D14FF42070FEF7C8FDB860FB78A4
:10242000202B0CD0202B02DC002B05D03AE0402BD7
:1024300008D0602B09D035E010237B6108E0082329
:102440007B6105E006237B6102E004237B6100BF22
:10245000BB685A017B69796801FB03F35B0813448D
:102460003B617B697A6802FB03F33A69B2FBF3F3E1
:102470003B613B69203B3B613B69DB003B613A6967
:102480000A4B13403B61FB689B6823F06002FB68CA
:102490009A60FB689A68FB781A43FB689A60FB684D
:1024A0003A69DA611837BD4680BD00BFF8FF7F008A
:1024B00080B485B000AF78600B46FB707B68154A2E
:1024C000934202D07B68144A934200BF7B6803F5B5
:1024D0008053043301221A60FB78DB43FB60FB6806
:1024E00003F00503FB60FB685A007B685A61FA78C9
:1024F0007B685A61FB78002B05D17B6803F500539C
:10250000043301221A6000BF1437BD465DF8047B16
:10251000704700BF00C005400000064080B582B093
:1025200000AF786039607B68504A934202D07B6884
:102530004F4A934200BF786800F09EF87B6803F52D
:102540008053043301221A603B689B7C002B05D02A
:102550007B689B6843F080427B689A603B68DB7CC9
:10256000002B05D03B681B7D19467868FFF71EFFDE
:102570003B685B7B1A463B681B8A13433A68D289E7
:102580001A437B68DA603B6859683B689A683B6825
:102590001B7B7868FFF734FF3B685B7D002B05D021
:1025A0007B689B6843F480327B689A603B689B7DC4
:1025B0001B0703F0E0423B68DB7D1B0503F4E003EF
:1025C0001A437B689A653B681B7E022B03D03B68ED
:1025D0001B7E032B16D1274A7B6824498B4208D0E7
:1025E0007B6823498B4201D1012303E04FF0FF3385
:1025F00000E000235B01134403F5B0531C330222B7
:102600001A6015E01B4A7B6818498B4208D07B682A
:1026100017498B4201D1012303E04FF0FF3300E063
:1026200000235B01134403F518531C3302221A6084
:102630003B681B7E012B03D03B681B7E032B06D11E
:102640007B6803F582531C3304221A6005E07B6823
:1026500003F501531C3304221A603B681B781A46A9
:102660007B685A6100BF0837BD4680BD00C0054089
:102670000000064000C0034080B483B000AF786023
:102680007B68274A934202D07B68264A934200BF68
:102690007B6803F58053043301221A607B6840F69F
:1026A000AA625A617B6800229A607B680022DA6520
:1026B0007B6841F20502DA607B6800221A617B6860
:1026C0000022DA617B680022DA647B6803F501533B
:1026D0000833154A1A607B6800229A657B68104AA5
:1026E000934203D07B680F4A934202D17B68002259
:1026F0001A657B680A4A934203D07B68094A934271
:1027000002D17B6800225A657B6803F500530433CD
:1027100001221A6000BF0C37BD465DF8047B70478C
:1027200000C0054000000640FFFF010080B483B0F8
:1027300000AF786000BF7B689B6903F08003002BCB
:10274000F9D07B685B6ADBB218460C37BD465DF892
:10275000047B704780B483B000AF78600B46FB7099
:1027600000BF7B689B6903F04003002BF9D0FA7827
:102770007B68DA6300BF0C37BD465DF8047B7047A9
:1027800080B400AF074B084A9A60064BD3F88830F4
:10279000044A43F47003C2F8883000BFBD465DF8B8
:1027A000047B704700ED00E00000000080B582B0BF
:1027B00000AF00237B600E4B1B6F03F00703022B5F
:1027C00004D0032B06D0012B08D00AE000F04AF811
:1027D000786007E0074B1B687B6003E0064B7B607B
:1027E00000E0FEE77B6818460837BD4680BD00BFA5
:1027F0000080004004000020002D310180B582B02F
:1028000000AFFFF7D3FF7860094B1B6F1B0B03F082
:102810000F033B603B6801337A68B2FBF3F37B60E4
:10282000044A7B6813607B6818460837BD4680BD44
:10283000008000401000002080B400AF024B18461A
:10284000BD465DF8047B704700B4C40480B400AF9B
:10285000034B1B681846BD465DF8047B704700BFFC
:102860000400002080B400AF034B1B681846BD462F
:102870005DF8047B704700BF0C00002080B400AFFF
:1028800000231846BD465DF8047B704780B400AF56
:10289000024B1846BD465DF8047B7047002D3101A0
:1028A00080B400AF4FF400431846BD465DF8047B8A
:1028B000704780B400AF4FF47A731846BD465DF898
:1028C000047B704780B400AF034B1B681846BD46BD
:1028D0005DF8047B704700BF0800002080B400AFA3
:1028E000044B1B681B0CDBB21846BD465DF8047B2D
:1028F000704700BF0080E00F80B582B000AFFFF7E7
:10290000EDFF0346012B1CD1104B5B6E03F48023BB
:10291000002B0CBF01230023FB710C4B03F58353E9
:1029200004334FF480221A60094B04221A60FB79A9
:10293000002B06D0054B03F5015324334FF48022BE
:102940001A6000BF0837BD4680BD00BF0080004050
:102950002020014080B483B000AF0346FB710B46DA
:10296000BB7113467B7100BF0C37BD465DF8047B1D
:10297000704780B500AFFFF7BFFF00F007F800F029
:1029800020F800F017F800BF80BD000080B582B0CD
:1029900000AF074A3B4692E8030083E803003B464A
:1029A0001846FFF79FFA00BF0837BD4680BD00BF3D
:1029B000A09C000080B400AF00BFBD465DF8047B62
:1029C000704780B500AF012201210320FFF7C2FF4D
:1029D00003218020FEF774FD09214FF4C060FEF74B
:1029E0006FFD09214FF4F060FEF76AFD09213E20DA
:1029F000FEF766FD09212D20FEF762FD00BF80BDB8
:102A000080B500AF01213A20FEF79AFA00F02EF8C7
:102A100000F028FA00BF80BD80B483B000AF034649
:102A20003960FB71FB79002B07D0FB79012B04D0B7
:102A3000FB79022B01D0FB79032B01223B6802FAC0
:102A400003F30949FA79184613465B0013441B0146
:102A50000B4403F580531033186000BF0C37BD469C
:102A60005DF8047B704700BF00C0034080B582B0B2
:102A700000AF01213A20FEF763FA00237B600BE0F0
:102A8000094A7B6812F83300002100230422FFF773
:102A900031FB7B6801337B607B68002BF0D0002327
:102AA00018460837BD4680BDA89C000080B582B09E
:102AB00000AF78607B68002B0DDB7B68002B0AD1B0
:102AC000084A7B6812F83330002211461846FFF797
:102AD000A3FF002301E04FF0FF3318460837BD463F
:102AE00080BD00BFA89C000080B500AF00F010F8CA
:102AF00000BF80BD80B500AF044B01229A7003492E
:102B00004FF0FF3001F0FEFA00BF80BD98060020B4
:102B100080B588B000AFFFF72CFFFFF771FF07F11A
:102B2000080300221A605A609A60DA601A61022370
:102B30003B72184BFB6002237B740423BB7402239B
:102B4000FB7505233B7607F1080319464FF0FF306C
:102B500001F06EFCFFF7CEFF00F020F8FDF79CFBC4
:102B6000F861FB690C4A934202D0FB69002B0DD13E
:102B70003B1D00211846FDF73DFBF861FB69002B6A
:102B800004D17B68DBB2184601F0BAF800BF2037E9
:102B9000BD4680BD006A1800038000F080B500AF1C
:102BA00000F002F800BF80BD80B400AF00BFBD469A
:102BB0005DF8047B704780B483B000AF7860002379
:102BC00018460C37BD465DF8047B704780B483B06F
:102BD00000AF7860FEE780B483B000AF7860396002
:102BE0003B684FF400525A60002318460C37BD462C
:102BF0005DF8047B704780B483B000AF7860012338
:102C000018460C37BD465DF8047B704780B485B02C
:102C100000AFF860B9607A60002318461437BD46EB
:102C20005DF8047B704780B586B000AFF860B9608E
:102C30007A6000237B610FE000F076F938613B6930
:102C4000B3F1FF3F0ED0BB685A1CBA603A69D2B2EA
:102C50001A707B6901337B617B685A1E7A60002B96
:102C6000EAD100E000BF7B69002B02DC4FF0FF33AC
:102C700000E07B6918461837BD4680BD80B485B03A
:102C800000AF78600B4B1B68002B02D1094B0A4A3E
:102C90001A60084B1B68FB60064B1A687B6813447C
:102CA000044A1360FB6818461437BD465DF8047B80
:102CB000704700BFCC0400203818002080B586B0D3
:102CC00000AFF860B9607A6000237B6109E0BB68FF
:102CD0005A1CBA601B78184600F066F97B6901330C
:102CE0007B617A697B689A42F1DB7B68184618370A
:102CF000BD4680BD80B483B000AF0346FB7197F939
:102D00000730002B0BDBFB7903F01F02074997F913
:102D100007305B09012000FA02F241F8232000BFCE
:102D20000C37BD465DF8047B704700BF00E100E052
:102D300080B483B000AF0346FB7197F90730002BD6
:102D40000CDBFB7903F01F02074997F907305B0999
:102D5000012000FA02F2603341F8232000BF0C3753
:102D6000BD465DF8047B704700E100E080B483B0AD
:102D700000AF786039607B6803F5015308333A6827
:102D80001A6000BF0C37BD465DF8047B704780B405
:102D900083B000AF786039607B68DA6C3B68DB43F6
:102DA0001A407B68DA6400BF0C37BD465DF8047BCF
:102DB000704780B483B000AF786039607B68DA6CAC
:102DC0003B681A437B68DA6400BF0C37BD465DF888
:102DD000047B704780B500AF04210248FFF7D7FF9E
:102DE00000BF80BD0000064080B500AF042102484E
:102DF000FFF7DFFF00BF80BD0000064098B500AFC1
:102E0000144B9B6903F08003002B20D0124B1B68EE
:102E1000072B1ADC114B1C680E48FFF787FC034692
:102E20001A460F4B1A550D4B1B6801330B4A1360A2
:102E3000094B1B680133084A1360084B1B68082BB9
:102E400005D1064B00221A6001E0FFF7C3FF00BF67
:102E500098BD00BF00000640D8040020D404002024
:102E6000DC040020B0B588B000AF01213A20FEF7A5
:102E700067F80123042205210020FFF73BF9012315
:102E8000022206210020FFF735F9224BFB61224B7D
:102E90003C461D460FCD0FC495E8070084E80700A7
:102EA00001212920FEF74CF800233B703B461946D0
:102EB000F869FFF733FB194B1422C3F83C26174B74
:102EC0004FF4A022C3F85426144B4FF4C022C3F889
:102ED0004C2604210F48FFF749FF0F20FFF728FF7A
:102EE00004210C48FFF765FF0F20FFF703FF0521C2
:102EF000F869FFF7DDFA0A4B1B6898680023022285
:102F0000002105F033FF074B01221A7000BF203764
:102F1000BD46B0BD00000640B09C000000C00340AC
:102F200014020020E504002080B582B000AF4FF00D
:102F3000FF337B60184B1B7883F00103DBB2002B5F
:102F400001D0FFF78FFFFEF7DFFE3860134B1B68E1
:102F5000002B18DD124B1B68124AD35CDBB27B607E
:102F60000F4B1B6801330E4A13600D4B1B68082B77
:102F700002D10B4B00221A60084B1B68013B074A29
:102F80001360FFF731FF3868FEF7CEFE7B68184606
:102F90000837BD4680BD00BFE5040020D8040020EE
:102FA000D0040020DC04002080B582B000AF0346CE
:102FB000FB710F4B1B7883F00103DBB2002B01D0B8
:102FC000FFF750FF0B4B1B78002B06D0FB790A2B29
:102FD00003D10D210848FFF7BDFBFB7919460648D0
:102FE000FFF7B8FBFB7918460837BD4680BD00BF28
:102FF000E5040020E40400200000064080B582B013
:1030000000AF0346FB71FB7983F00103DBB2002BB9
:1030100003D00020FFF74AFDFEE700BF0837BD469A
:1030200080BD000080B400AF044B1B681B0CDBB2FA
:103030001846BD465DF8047B704700BF0080E00F76
:1030400080B582B000AFFFF7EDFF0346012B1CD126
:10305000104B5B6E03F48023002B0CBF0123002375
:10306000FB710C4B03F5835304334FF480221A6039
:10307000094B04221A60FB79002B06D0054B03F59F
:10308000015324334FF480221A6000BF0837BD4635
:1030900080BD00BF008000402020014080B582B08C
:1030A00000AFFFF741FF0346FB7197F90730B3F11B
:1030B000FF3FF6D0FB7918460837BD4680BD80B586
:1030C00000AFFFF711FDFFF7CDFE00BF80BD000090
:1030D00080B584B000AF78604FF48053BB8107F1B6
:1030E0000C031A460E49786801F068F90346FB7331
:1030F000BB89B3F5805F0CBF01230023DBB2184608
:10310000FFF77CFFFB7B002B0CBF01230023DBB20E
:103110001846FFF773FF002318461037BD4680BDE1
:10312000A006002090B587B002AF682200215E485B
:1031300005F0FBFD4FF4D47200215C4805F0F5FD6D
:1031400000215B4800F0A2FD02465A4B1A60594B21
:103150001B68002B14BF01230023DBB21846FFF7C6
:103160004DFF544B1B684FF00111184601F011F947
:103170000346FB73FB7B002B0CBF01230023DBB258
:103180001846FFF73BFF4B4B18684B4B1B68002260
:10319000194600F07BFF494A3B1D92E80300186086
:1031A00004331980434B1B683A1D1146184601F041
:1031B0004AF80346FB73FB7B002B0CBF0123002363
:1031C000DBB21846FFF71AFF3A4B1B68012118467D
:1031D00001F076F80346FB73FB7B002B0CBF012349
:1031E0000023DBB21846FFF709FF324B1B680021B2
:1031F000184601F041F80346FB73FB7B002B0CBF24
:1032000001230023DBB21846FFF7F8FE294B1968AB
:103210004FF000034FF08004CDE900344FF0FF324F
:103220004FF0FF33084600F063FF0346FB73FB7B60
:10323000002B0CBF01230023DBB21846FFF7DEFE94
:103240001F4B1B683B601B4B1B683A4611461846D8
:1032500001F0A8F80346FB73FB7B002B0CBF012396
:103260000023DBB21846FFF7C9FE124B18684FF473
:1032700080730022134901F09DF80346BB81BB898E
:10328000B3F5807F0CBF01230023DBB21846FFF7A4
:10329000B5FE084B1B6801220121184601F09EF87B
:1032A00000BF1437BD4690BDA017002020000020AD
:1032B00014000020E8040020CC010020CC9C000079
:1032C000D49C0000A0160020B0B588B000AFF86014
:1032D000B9607A606B461D46304B1B78022B0CBFE1
:1032E00001230023DBB21846FFF788FE0523BB61EC
:1032F000BB69013B7B61BB6919464FF000024FF08F
:1033000000034FF00004D40044EA5174CB00BB69C1
:1033100019464FF000024FF000034FF00004D400B4
:1033200044EA5174CB00BB690733DB08DB00ADEB2B
:10333000030D6B4600333B610023FB610BE0FFF79D
:10334000ADFE034619463A69FB6913440A461A70F2
:10335000FB690133FB61FA69BB699A42EFDBFFF756
:103360009DFE03460A2B0CBF01230023DBB2184647
:10337000FFF744FE3B691A88FB681A803B695A884C
:10338000BB681A803B691A797B681A700A20FFF7BC
:103390000BFEAD4600BF2037BD46B0BDE6040020A1
:1033A000B0B588B000AFF860B9607A606B461D4672
:1033B000304B1B78012B0CBF01230023DBB21846D6
:1033C000FFF71CFE0523BB61BB69013B7B61BB6949
:1033D00019464FF000024FF000034FF00004D400F4
:1033E00044EA5174CB00BB6919464FF000024FF01C
:1033F00000034FF00004D40044EA5174CB00BB69D1
:103400000733DB08DB00ADEB030D6B4600333B619C
:103410000023FB610BE0FFF741FE034619463A69C2
:10342000FB6913440A461A70FB690133FB61FA69B0
:10343000BB699A42EFDBFFF731FE03460A2B0CBF54
:1034400001230023DBB21846FFF7D8FD3B691A8839
:10345000FB681A803B695A88BB681A803B691A79F5
:103460007B681A700A20FFF79FFDAD4600BF20372A
:10347000BD46B0BDE604002080B584B000AF4FF477
:1034800080720021304805F050FC4FF4805200213A
:103490002E4805F04AFCFFF7D3FDFFF710FEFFF7BB
:1034A00041FEFFF7FBFD0346FB73FB7B742B22D130
:1034B000274B1B78002B0CBF01230023DBB21846DF
:1034C000FFF79CFD224B02221A7007F1090207F157
:1034D0000A0107F10C031846FFF7F6FE1D4B1868AA
:1034E000B9897A897B7A00F0D9F91A4B1B6818469A
:1034F00000F0BAFAD5E7FB7B722B20D1144B1B7876
:10350000002B0CBF01230023DBB21846FFF776FD2A
:103510000F4B01221A70FA1C391DBB1D1846FFF70C
:103520003FFF0C4B1868F988BA88FB7800F07AF8EE
:10353000084B1B680549184600F0B2F8B1E70020B7
:10354000FFF75CFDADE700BFA0160020A00600203D
:10355000E6040020E80400202DE9904886B000AF82
:10356000F860C7E90023D7E900344FF000014FF0BD
:10357000800203EA010B04EA020C5BEA0C030FD0A1
:1035800000220021F86800F0ADFB0346FB75FB7DCF
:10359000002B0CBF01230023DBB21846FFF72EFDE2
:1035A000D7E900344FF0FF316FF0800203EA010BDE
:1035B00004EA020C5BEA0C0316D00E4B1B78022BBC
:1035C00005D1D7E90023F86800F0B0FA0CE0094B08
:1035D0001B78012B05D1D7E90023F86800F0E2F849
:1035E00002E00020FFF70AFD00BF1837BD46BDE826
:1035F000908800BFE604002080B483B000AF7860FC
:10360000002318460C37BD465DF8047B704780B434
:1036100083B000AF7860396000BF0C37BD465DF8FD
:10362000047B704790B589B002AFF8600846114638
:103630001A4603467B810B463B811346FB7100F023
:103640003FFB03461846FFF7D9FC124A7B891380DB
:10365000114A3B891380114AFB7913704FF4CC4314
:103660004FF00004CDE900344FF4CC424FF000039A
:10367000F86800F03DFD0346FB75FB7D002B0CBF99
:1036800001230023DBB21846FFF7B8FC00BF1C374C
:10369000BD4690BDF4040020F6040020F80400208C
:1036A00080B58AB000AF78603960374B1B88FB600B
:1036B00001233B74354B1B887B6101233B76002340
:1036C0007B760123BB7601220021786800F086FE1C
:1036D0002F4B1B7899B207F10C020023786800F099
:1036E000FDFA034687F8233097F82330002B0CBFF0
:1036F00001230023DBB21846FFF780FC254B012293
:103700001A7000BF234B1B78DBB2002BFAD1224B7F
:103710001B68002BCCBF01230023DBB21846FFF748
:103720006DFC1D4B1B68002B00DA03339B10194600
:103730001A4805F003FB00237B6217E07B6A5B00FD
:103740003A6813441B883B847B6A01335B003A6808
:1037500013441B88FB83B7F92030B7F91E201946A4
:103760000F4805F0EBFA7B6A02337B620A4B1B6859
:10377000DA0F13445B101A467B6A9342DEDB00BF0C
:103780002837BD4680BD00BFF4040020F6040020A9
:10379000F8040020EC040020F004002074A00000D5
:1037A00078A000002DE9904884B000AFF860C7E928
:1037B0000023D7E900344FF400514FF0000203EA30
:1037C000010B04EA020C5BEA0C031CD0F86800F061
:1037D00001FE03469B089BB29B002E4A1360012208
:1037E0000121F86800F072FA01220021F86800F067
:1037F000F5FD294B1B78DBB21846FFF7FFFB264B84
:1038000000221A7040E0D7E900344FF48C414FF0A9
:10381000000203EA010B04EA020C5BEA0C0330D05D
:10382000D7E900344FF400714FF0000203EA010BB6
:1038300004EA020C5BEA0C0302D00020FFF7DEFB77
:10384000D7E900344FF480614FF0000203EA010B26
:1038500004EA020C5BEA0C0302D00020FFF7CEFB67
:10386000D7E900344FF480414FF0000203EA010B26
:1038700004EA020C5BEA0C0306D00020FFF7BEFB53
:1038800002E00020FFF7BAFB00BF1037BD46BDE8DD
:10389000908800BFF0040020EC04002090B58DB0AB
:1038A00002AFF860084611461A4603467B810B4674
:1038B0003B811346FB7100F003FA03461846FFF7FD
:1038C0009DFB3A4A7B891380394AFB791370394B47
:1038D0001B883B8407F120031946F86800F000FCC0
:1038E000034687F8273097F82730002B0CBF0123B9
:1038F0000023DBB21846FFF781FB2F4B4FF0080483
:10390000CDE900342C4A4FF00803F86800F0F0FBD2
:10391000034687F8273097F82730002B0CBF012388
:103920000023DBB21846FFF769FB6423BB826423E4
:10393000FB823B893B8364237B836423BB836423B7
:10394000FB8307F114031946F86800F009FA0346EF
:1039500087F8273097F82730002B0CBF012300236E
:10396000DBB21846FFF74AFB0421F86800F02AFD95
:103970000346BB84BB8C042B0CBF01230023DBB2AA
:103980001846FFF73BFB0121F86800F0ADFB03464A
:103990007B847B8C012B0CBF01230023DBB21846F8
:1039A000FFF72CFB00BF2C37BD4690BD0005002063
:1039B0000205002080A000000000609580B584B062
:1039C00000AF7860FF233B7307F10C010023012255
:1039D000786800F0EBFC0346FB81FB89012B0CBFF0
:1039E00001230023DBB21846FFF708FB00BF1037A6
:1039F000BD4680BD80B588B002AF7860164B1B68AD
:103A0000FB6000233B7401237B74144B1B7899B239
:103A100007F10C020023009313460022786800F09F
:103A200059F90346FB75FB7D002B0CBF01230023D6
:103A3000DBB21846FFF7E2FA094B1B881A46064B21
:103A40001B681344044A1360064B01221A7000BF1E
:103A50001837BD4680BD00BFFC04002002050020D1
:103A600000050020D401002080B586B000AF78604A
:103A700000220121786800F0B1FC00F0DCFC014676
:103A8000274B1B881A4613469B0013440B44254AB8
:103A9000136000237B6105E07868FFF78FFF7B6987
:103AA00001337B617B69082BF6DD7868FFF7A2FFA5
:103AB000786800F08BFC03463B6100F0BCFC0246DA
:103AC000184B1B689A4234BF01230023DBB218460F
:103AD000FFF794FA00BF144B1B78DBB2002BFAD12E
:103AE0007868FFF76BFF7868FFF784FFFFF71CFA31
:103AF0000346FB7397F90F30692B0BD097F90F3002
:103B0000B3F1FF3F0CBF01230023DBB21846FFF7E0
:103B100075FACDE700BF00BF1837BD4680BD00BFB6
:103B200000050020FC040020D40100202DE990486D
:103B300084B000AFF860C7E90023D7E900344FF440
:103B400080014FF0000203EA010B04EA020C5BEA79
:103B50000C0309D03F4B1B78DBB21846FFF74EFA37
:103B60003C4B00221A706FE0D7E900343A494FF01D
:103B7000080203EA010B04EA020C5BEA0C0360D0C2
:103B8000D7E900344FF400114FF0000203EA010BB3
:103B900004EA020C5BEA0C0302D00020FFF72EFAC5
:103BA000D7E900344FF080714FF0000203EA010BB7
:103BB00004EA020C5BEA0C0302D00020FFF71EFAB5
:103BC000D7E900344FF080614FF0000203EA010BA7
:103BD00004EA020C5BEA0C0302D00020FFF70EFAA5
:103BE000D7E900344FF080514FF0000203EA010B97
:103BF00004EA020C5BEA0C0302D00020FFF7FEF996
:103C0000D7E900344FF000414FF0000203EA010B06
:103C100004EA020C5BEA0C0302D00020FFF7EEF985
:103C2000D7E900344FF000014FF0080203EA010B1E
:103C300004EA020C5BEA0C0306D00020FFF7DEF971
:103C400002E00020FFF7DAF900BF1037BD46BDE8FB
:103C5000908800BFD40100200000209506488047CE
:103C60000649074A074B9A42BEBF51F8040B42F877
:103C7000040BF8E7FCF784FA8127000058CF000016
:103C80000000002080020020FEE700BF70B50E4655
:103C9000044678B1084D2B7863B9084B186000F0E2
:103CA00041F83146204600F02DF8031C18BF0123CF
:103CB0002B7070BD0020FCE70805002004050020E3
:103CC000014B1878704700BF0805002008461146D0
:103CD00000F03CB800B10C3001F04ABB00B10C3030
:103CE00000F013BA00B10C3000F023BB7047431E44
:103CF000012B03D9031F58425841704701207047D8
:103D000000F062BC38B504460D460021FFF77FFC89
:103D10002946204601F0B2F900280CBF20460020B9
:103D200038BD000010B5044600F0A0FC44B1054ABF
:103D3000D4F88030002B08BF1346034A136010BD2F
:103D4000636FFFDEED3C0000D801002010B50C468B
:103D500000F098FC1CB100F0F3FC0128FBD110BD71
:103D600000B10C3001F0F0B92DE9F04FDFF870919F
:103D700085B004468B4616468DF80F3001F0E6FB01
:103D8000B9F8005001F004FC00283CD1524F002E3D
:103D90003ED0386000F0D4FC012865D1DFF844A1A2
:103DA000A26EDAF80030E06E002B65D0934266D048
:103DB0001D68116802680DB18D426FD0204601F078
:103DC000B3F8012200230546CDE90123D4F87C8015
:103DD000B8F1000F72D000220DF10F0311462046FA
:103DE000C0474DBBD4E91A23CAF800203B60E6B9AE
:103DF000029B002B59D1019B002B56D10025284650
:103E000005B0BDE8F08F0023334F3B6001F0B8FBF5
:103E1000E36E3A689342BDD1002BBBD05D45EDD037
:103E200000F08EFC0128B9D01EE03146C9F800B080
:103E3000204600F095FE05460EB9019B83B1B5FA08
:103E400085F03321400900F0E5FA9DF80F10204677
:103E500001F076F8214BE16E1B68A4F10C00984745
:103E6000284605B0BDE8F08F012000F00BFC00F003
:103E700067FC0128FBD191E7116802689EE7396869
:103E8000002995D0814293D1B5EB0B024FF000038E
:103E900018BF0122019302921D4697E7396811B1BC
:103EA0000968914205D0596888E7C9F800B00199BE
:103EB000BEE701230025CDE9013587E7217994F894
:103EC000B8309DF80F20994228BF1946204600F0CF
:103ED000DCFD002DB0D185E714050020D8010020BD
:103EE0000C050020100500202DE9F04F074683B097
:103EF0000E46FDF7EBFEFB6E814613B13B89B342E4
:103F000048D0BB6E002B53D09C68002C50D0D96891
:103F100000294DD0D7F87CA0BAF1000F50D04FF057
:103F20000008A7F10C0B4046454600E09C6805EBF5
:103F3000450204EBC204E2890135B24215D8228A57
:103F4000B24212D3B4F91220B7F92A110193914267
:103F500017DD97F8AC10584604F0F2FA3A7980462B
:103F600082420ED92046019BD9688D42DED338B9F2
:103F700001244846FDF7BAFE204603B0BDE8F08FA5
:103F800004460023224619463846D0473E81FC6647
:103F900087F8B880002331461A463846FFF7E4FE1A
:103FA00004464846FDF7A2FE204603B0BDE8F08F68
:103FB00003244846FDF79AFE204603B0BDE8F08F83
:103FC000D0465046554647F6FF7BA7F10C0A0EE057
:103FD00097F8AC10504604F0B3FA3A798046824222
:103FE000D4D92046019BD9688D4213D29C6805EB39
:103FF000450204EBC204E2890135B242F4D8228AB8
:10400000B242F1D3B4F9122001935A45E0D14FF0F6
:10401000FF08BBE70028ABD00446B7E7F8B50D1C96
:1040200018BF01250E46074600241F21284600F030
:10403000F1F9304601F008FE1F21284687F8C840F4
:10404000C7E91A6400F0E6F94FF6FF721820F1682C
:10405000E3B28B420BD3154600230A4A294613606C
:10406000094A38461360FFF73FFF2846F8BDB56898
:1040700000FB0353DD89954202D2002DECD02A4685
:104080000134E5E7100500201405002000B10C30D4
:10409000054B002A08BF1A46044B1A6009B1FFF706
:1040A000BDBF0846704700BFED3C0000D8010020AE
:1040B000008970470A7838B505461046FFF717FEA5
:1040C00060B14C782046FFF712FE38B12243530707
:1040D00004D42846BDE8384000F08ABC012038BD31
:1040E00000B10C30FFF7E6BF00B10C3000F006BAAB
:1040F00030B4DDE9024500B10C30CDE9024530BCF9
:1041000000F064BA084601F00BBB70B504460D46DA
:104110001646FFF7E9FE30B9324629462046BDE88B
:10412000704000F055BB70BDF0B587B004460F4637
:104130001646ADF806101D46E3B190F8B730BBB98E
:1041400000F1AC0393E8030094F8B5300490C0B2DA
:104150009842ADF8141005D006A901F8083D204694
:1041600000F06EFC2A7894F8B610204600F08DFC22
:10417000002028E0A0F10C053ABB00F1AC0393E865
:10418000030004AA0490ADF81410A4F82A71E36E99
:104190000DF10601284600F051F9A0B99DF8101064
:1041A0002846BDF9062004F0CBF904A905462046AF
:1041B00000F046FC38B92946204600F085FCBDF8E1
:1041C0000630A4F82C3107B0F0BDB2F91230B0F9C6
:1041D0002A2106A99342A8BF1346284621F80A3D82
:1041E00004AA334600F02AF984F8B700B6F9122081
:1041F000BDF90E309A42A8BF1A469DF81030ADF8AE
:104200000E20032B04BF012384F8B73094F8B73095
:104210006BB1B4F92C31934209DD04F1AC0393E89E
:10422000030000230490ADF8141084F8B7309DF813
:104230001010A4F82C2184F8B510284604F080F959
:1042400084F8B60094E738B5044648880D4601F076
:10425000F9FC4CB1D4F8883043B9294604F10C007C
:10426000BDE8384000F0ECBBE36FFFDE022038BD54
:1042700000B10C3000F06ABCF7B5044600200F46D0
:1042800001F0E0FCD4B1D4F8885004F10C067DB9FB
:1042900069462046FFF7ECFF9DF800103A4620469D
:1042A00004F04EF90146304600F00EFC03B0F0BDBC
:1042B000002339461A463046A847F7E7E36FFFDE8A
:1042C00000B10C300029034B08BF0023C367002056
:1042D000704700BF2941000038B504460D46FDF780
:1042E000F5FC0023A5616361BDE83840FDF7FEBC25
:1042F00038B505460C46FDF7E9FCA9696B690C4029
:1043000023436B61FDF7F2FC00200CB9002138BD9E
:104310008021FCE738B505460C46FDF7D7FCA969B6
:1043200021406C6924EA01046C61FDF7DFFC204642
:1043300038BD73B5054614460E4681B94FF0FF33BC
:104340000193EAB96C6928462146FFF7E3FF22464C
:1043500001A9284600F028FB6EB902B070BD0B68B9
:104360000193002AEED01146FFF7D4FF224601A99F
:10437000284600F019FB0028EFD1019B3360ECE7E1
:104380001146FFF7C7FF224601A9284600F00CFBA3
:10439000E3E708B500B10C3001F00111FFF79CFF15
:1043A000002008BD00B10C3000F05ABD00B10C3047
:1043B00000F01EBD00B10C3000F0CABC00B10C30E2
:1043C00000F0E3BC00B10C3000F082BC00B10C3056
:1043D00000F0A6BC00B10C3000F0B2BC38B51546F8
:1043E00058B100F10C0411B1204600F0E9FC35B1E0
:1043F0002046BDE8384000F06DBD0446F3E738BD07
:10440000024B1960024B1860FEE700BFDC01002080
:10441000E001002008B528B9034B1960034B186868
:10442000FFF7EEFF08BD00BFDC01002004050020FF
:10443000084600F0B5BE00F009BE0000032313706B
:10444000104B70B5587950B9B1F90040B3F900601C
:10445000B3F90250A642187901DCA5420CDAD87AE9
:1044600058B9B3F90840987AB1F90010B3F9063099
:104470008B4202DC8C4200DB10701078C31E584265
:10448000584170BDE4010020024BD868C0F30360BE
:10449000704700BF000002A87047000038B16FF0FD
:1044A000FF02034B10401A60A3F580531860704759
:1044B00024E000A8C2690F4B02F06002402A12D02B
:1044C000602A04D0202A12D10122DA6107E071B1FA
:1044D0000A68012A0BD94A6942F00102DA61802296
:1044E000054B1A61704740F20112DA61F7E70022CA
:1044F000DA61F4E7484F00B0000002A80246234BFF
:10450000234810B5186090894FF6FF73A1B99842FF
:1045100008BF204B4FF0070102BF1B6AC3F30B0318
:10452000A2F82431002393811B4A1846116005210B
:10453000A2F58052116010BD994210D18842FAD084
:104540000720154B134C1860236AB2F8240123F49A
:104550007F6323F00F03034323629181EBE79842CB
:1045600004BF0C4B1B6A918104BFC3F30B03A2F879
:1045700024310722B1F5805F28BF4FF48051064BEC
:1045800008461A60034B4A1E1A62D4E72C05002025
:10459000FD440000004000A80C6000A800F01803D3
:1045A000182B084B02D100221A627047010702D56E
:1045B00001221A627047C206F5D540F201121A6252
:1045C000704700BF484F00B0032070472DE9F34B00
:1045D000DDE90A67D0E938890446002588EA060043
:1045E00089EA070101EA030C00EA020B8CEA0901DF
:1045F0008BEA0800C4E9380122F0010006EA00084D
:1046000007EA03091946CDE9005549F0800348F04F
:10461000004202F053FE2378DB0720D5D4E938238B
:10462000002003F0800150EA010318D04FF48031DC
:104630002046FFF75DFE237865F300032370D4E97D
:10464000382302EA000503EA010655EA060306D00C
:1046500005492A4609683346A4F10C008847002022
:1046600002B0BDE8F08B00BFF0010020034A0368F0
:10467000002B08BF1346024A13607047994400009C
:10468000F00100202DE9F34103284BD8DFE800F0CA
:1046900046023E42002401262546FDF717FB074649
:1046A00002F0E4FF804640B100230022CDE9003350
:1046B00001200023002102F001FE2946304603F0CC
:1046C0006FF922462946304603F0CEF9B8F1000FC3
:1046D00016D0164B1B6803B10C33154A126C5202EC
:1046E00008D4DB6913F0800F4FF4001314BF114A94
:1046F000114A136011490868FFF7D0FE00230B60D0
:10470000384602B0BDE8F041FDF7F0BA01250024BB
:104710002E46C2E7012425462646BEE7002425464C
:104720002646BAE702B0BDE8F08100BF04050020CC
:10473000000002A8205001A8206001A83005002038
:1047400008B5FFF7A1FE01380B280DD8DFE800F00F
:1047500014140614141414080A080808032008BDC9
:104760000420FCE70520FAE7044B5B6913F0060F11
:1047700014BF04200120F2E70220F0E700C001A8E6
:10478000034B1B6C13F0A00F0CBF012000207047DF
:10479000000002A810B50246FFF7D2FF012813D18E
:1047A000C1F159047F2C0EDC9170FDF78FFA074A96
:1047B000E402136A04F4FF2423F4FF231C4314626D
:1047C000FDF794FA002010BD0220FCE700C000A80D
:1047D000114602F095BF00000138C0B202284FF028
:1047E00060518EBF00220D4B53F820200C4B00204F
:1047F0001960A3F580531A604FF400124FF08051F6
:104800001A60084A936F23F0060343F0040393678A
:10481000054B19600423C2F88C30704784A0000057
:10482000206001A8004000A84C1002A8114B1B7882
:1048300013B10622104B1A600022104BC3F88C20D3
:104840004FF0805203F5F0334C331A600C4B1B6C65
:1048500013F4800F0B4B08D1C26912F0800F4FF494
:10486000001216BF08491A600A604FF0605200201B
:104870001A6070471C050020786000A8004000A85E
:10488000000002A8206001A8205001A870B51546BC
:10489000C269064682EA05030B405340C36108071C
:1048A0000C4606D5082315F0080F14BF334A344AC6
:1048B0001360E10706D5012315F0010F14BF2F4A3D
:1048C0002F4A136062070CD503F052F84FF40073BF
:1048D00015F0040F14BF2B4A2B4A136004222B4BF4
:1048E0001A60A30706D5022315F0020F14BF234A4E
:1048F000234A1360E00606D515F0100F14BF0022FE
:104900001B22234B5A6521061ED52A0625D54FF4B6
:104910000012204B1A60012203F587531A60FDF73D
:10492000D5F90146FFF7B0FD032806D11A4AD3682E
:1049300023F0F00343F0E003D36040F20122144B74
:104940000846DA62FDF7D2F914F0600F03D0316F38
:104950003046FFF7AFFD002070BD104B1B6C5B02B3
:10496000F2D44FF4001196F888300D4A1160002BF4
:10497000EAD001220B4B1A60E6E700BF4C5000A8BA
:104980004C6000A8245001A8246001A8402002A87F
:10499000004000A8205001A8484F00B0000002A825
:1049A000206001A8005101A873B50C46D107054647
:1049B000164601D502F030FAF2030FD521684B1CE0
:1049C00008D101A9284600F083FE08B9019B2360A5
:1049D00002B070BD284600F067FEF9E701A928463D
:1049E00000F048FE08B9019B23600020F0E70000BA
:1049F000F8B5114D0F784C782E68FDF767F902462F
:104A00000E49FFF741FD0B2808D00C2801D00928DA
:104A100007D11046FDF76AF90220F8BD0B6CDB03E5
:104A2000EFD42406B3B244EA07441C4310462C607A
:104A3000FDF75CF90020F0E7F44E00B0000002A89A
:104A400070B5044600F1AC060868C4F8AC008B8869
:104A50000846A4F8B0308B88C4F83C31FF2363715A
:104A600001F01AF9054670B9304601F0FBF8054629
:104A700048B9204601F08EF90121A4F8B00004F1F4
:104A8000800002F07FFA284670BD38B5054690F8E0
:104A9000AC000C46032813D0FF2913D001F06CF9A9
:104AA000A04204D895F8AC0001F066F904466C7198
:104AB000204601F073FAA0F1FF035842584138BD77
:104AC0000220FCE70120FAE738B590F8AC30044644
:104AD000032B37D0C56E01718DB3C36F1BB990F82E
:104AE000B8308B4205D3B4F92A21B5F912309A4275
:104AF00011DD002294F8B8102046FFF7C6FF0546E6
:104B0000D8B9E0662046FFF7D3FA01462046BDE853
:104B10003840FFF7E9B900222046FFF7B6FF054607
:104B200058B9094B1B78012B07D8204601F032F900
:104B3000012104F1800002F025FA284638BDFF2348
:104B40004371FAE70225F8E7FE0100200346D0F89A
:104B5000AC000860B3F8B03000208B8070470000D4
:104B60002DE93048436A86B0012B6ED004464E4989
:104B700001F0C0FD01230022E56E84F8B430A9895C
:104B8000238920675B1A9BB2D5E9011505FB031148
:104B9000464DC4F8BC102D68A4F8C430A842C4F82F
:104BA000C02017D058B103684BB103693BB1996875
:104BB000D3E90023C4F88C10C4E9202304E00023C7
:104BC000C4E92033C4F88C3001462046FFF772FC5C
:104BD000D4E92F1201AB204601F05AFF00282FD153
:104BE000334AFFF751FC01380B28FAD9536913F007
:104BF000060FF6D12F4A3049136CDD01FCD40B6C43
:104C0000D807F9D401A904F1BC0002F0B5F80546B3
:104C1000B0B9B4F8C420294B29491A642378E26E4C
:104C200060F3000323700B68526911685A1C11D09D
:104C3000481C1ED08B1C04D0204600F035FD00E03F
:104C40000225284606B0BDE830880025284606B073
:104C5000BDE830884A1CEDD1D4E93823002003F0A8
:104C6000800150EA010309D1237843F00103237046
:104C7000E7E71946204600F017FDEDE74FF48031D5
:104C80002046FFF735FBD4E9382302EA000B03EA9C
:104C9000010C5BEA0C03D4D00A495A466346A4F1DE
:104CA0000C0009688847CCE7FC4F00B024050020C1
:104CB00000C001A8000002A800C002A8008001A84E
:104CC0000C020020F00100204FF4807103F02EBC94
:104CD00070B54FF6FF76114C002908BF31462368A6
:104CE000254603F007039A1D012393409BB2994286
:104CF00009D9B14208D140F6FF7363620B46A0F8B0
:104D00002031184670BD0B46696A5A1E21F47F6136
:104D100021F00F0192B20A436A62F0E70C0000AA88
:104D2000064B18681A6A00F00700831D012098409E
:104D3000C2F30C03C01A80B2704700BF0C0000AA77
:104D4000024B186AC0F30C00704700BF4C0000AA69
:104D50000846114610F0030210B514D1B3FA83F3DC
:104D6000192B05D0C3F11902D2B2062A28BF062298
:104D70000124931D9C40A4B2A14228BF214600F00B
:104D800065FD204610BD0124FBE7084611F0030134
:104D900010B512D11388B3FA83F3192B05D0C3F1E0
:104DA0001901C9B2062928BF062101238C1DA34081
:104DB000138000F069FD002010BD0120FCE7000019
:104DC00001214FF02A43084AD3F8183191624FF479
:104DD000005102F5005224325B07116042BF0422E9
:104DE000024B1A60704700BF0C0000AA181100AAFD
:104DF0002DE9F34104460D461646984600F0D3FBD4
:104E00000746B8F1000F10D02046FFF7D9FF47B191
:104E1000114B02A99B6E042241F8043D0023FFF7C9
:104E2000E7FF2946204600F0CBFB0C4829460368E3
:104E3000046A03F007039A1D0123C4F30C04934092
:104E40001C1BA4B2B44228BF3446224600F02AFDFF
:104E5000204602B0BDE8F081004001A80C0000AA85
:104E600038B54B7805460C46DBB9FFF7DFFCA37875
:104E7000DBB940F6FF72144B5A62E378CBB940F6C7
:104E8000FF72124B5A62602203F17E4303F5A04386
:104E90001A60402203F5E73303F5FA731A60002025
:104EA00038BD1846FFF798FCE1E72846FFF788FF72
:104EB000E3E76022064B1A60402203F5D73303F57F
:104EC000FA731A60EBE700BF0C0000AA4C0000AABE
:104ED0004C6000A838B54FF02A434FF4806400209E
:104EE000D3F8185103F5045318331C60064B1860AF
:104EF00002F08CFD4FF40052044B1A606A0544BF67
:104F0000A3F658731C6038BD20050020702000AA4D
:104F1000082310B1024A13607047024A13607047B9
:104F2000401002A8402002A810B5144608460121EE
:104F300001F0D2FC2046012101F0CEFC002010BD82
:104F40004FF480624FF6FF7CF8B5374B374E056F54
:104F50001A60D6F80431364AC3F381231370D6F8A9
:104F600008318689C3F38123664504460F46537092
:104F700004D0304B1B680BB1314698472E4E336836
:104F8000AB4248D02D4B1B6833B1002D45D029686A
:104F900001B1A96820469847236F13B11A68022A05
:104FA00017D8A4F10C00FEF727FB01F041FF0725FD
:104FB000204600F0EFFE47B3214B93F84720A2B9FB
:104FC00006200122246F1F491F4B346008601A70AD
:104FD000F8BD5A6AC2F307200028E6D01B6AD2B295
:104FE00002FB03F2B2FBF0F0DFE7104A93F8443023
:104FF000D2F80C01C0B2FF2813D098422CBF002079
:1050000001203C21FFF706FADAE7294604F1800087
:1050100001F0B8FFD0E70125CAE7294620469847A6
:10502000BAE70120EDE700BF4C2002A8004000A82D
:10503000280500202C05002024050020180500204C
:10504000F84E00B0786000A81C05002001F0B2BA4C
:105050004FF480130021064A06481360064AC2F83E
:10506000CC1002F5025234321360482203F05DBEC8
:10507000B86000A8F84E00B0004000A82DE9F34148
:1050800088460446002857D003234FF0641280F866
:10509000B8304FF6FF73C0E92822C0F8A820284A8C
:1050A0004FF0FF378374A0F83231038313804FF041
:1050B0004023C0F848710782D3F8843000F10C0611
:1050C00003F0C003802B35D1304602F0D7FA3046CA
:1050D000FFF7BEFF60221B4B04F5AA71DA6430466D
:1050E000FFF7BEFEA26A054639463046FFF7CEFB03
:1050F0000E234FF00042CDE90033802310461946BD
:1051000002F0DCF800F012FE85B92046FDF7E0FF62
:10511000054658B994F90E103046FFF73BFB05469B
:10512000B8F1000F02D008B92046C047284602B0A7
:10513000BDE8F0810225F9E784F8AC00FFDE00BF8E
:1051400034050020004000A870B50C46054600F16B
:1051500080060988943001F0F9FE6188208005F10D
:105160009C0001F0F3FEA188608005F19A0001F037
:10517000EDFEE188A08005F1980001F0E7FE2189AD
:10518000E080304601F0EEFE61892081304601F07A
:10519000F1FE07216081304601F0F4FE002070BD71
:1051A00000F092BF4FF6FF72B0F82631934211D053
:1051B000094A0A49526E100CC2F301120132B3FBC4
:1051C000F2F30880064A074907481B040860136089
:1051D0000020704703207047004001A834050020DC
:1051E000645001A8646001A80000FFFFF7B5054600
:1051F0000E461446FFF7C4FA002800F09D804FF4D5
:105200000061284603F092F938B14FF40072012191
:105210004A4B08461A60FEF799FD31462846FEF7CC
:1052200063FE0646002870D12B789B0601D4002C23
:1052300044D04FF44062424B1A6014F0020204D191
:10524000404B41491B789B020B604FF440613F4B40
:10525000196022B93B4B3E4A5B789B02136002F017
:1052600087FB4FF4806314F0040F14BF394A3A4AA5
:10527000324F13600422402314F0400F3A6014BFF1
:10528000364A374A20461360FFF788F92846FFF769
:105290001BFD38B14FF4807314F0010F16BF314A73
:1052A0003B601360A70602D52846FFF77BFF00345A
:1052B00018BF01242B7864F345132B70284600F0A7
:1052C0006FF9F8B12846FFF7FFFCD8B14FF4003171
:1052D000284603F02BF900280CBF012302230322E8
:1052E00001A9214800F01DFB9DF804101F4A01F0A0
:1052F0000703052B9DF8053012D1080708D443F4A5
:1053000080735360002000F09DFC304603B0F0BD78
:1053100059070BD49DF8063043F480735360F1E7CE
:1053200003F03001202904D1DB07F3D54FF480735B
:10533000F4E79DF80630F1E70226E6E7402002A8F0
:10534000046100A828050020045100A8086100A8F5
:10535000085100A8245001A8246001A888D000A802
:1053600088E000A8401002A80C0000AAD44E00B0AB
:1053700073B506461D46FFF739FF044688B995E820
:1053800003006A4682E803009DF80430B6F89A10DC
:10539000012B034607D1884205D20094104602F043
:1053A0009BFA02B070BD5B1A0093F7E74FF6FF71EE
:1053B000084A10B513888B4209D00748074C1B04D4
:1053C0000460A0F5805003600020118010BD032010
:1053D000FCE700BF34050020646001A80000FFFF67
:1053E0004C4B2DE9F3471C6881468A46154604B1AB
:1053F0000C348021484801EA0A0300EA09021343F9
:105400004BD0002309F00042134309D0434B1B68E3
:1054100003F07F43B3F1007F02BF0222404B1A60CA
:10542000002309F00102134328D04FF000080022A6
:10543000002300210120CDE9008801F03FFF012079
:1054400001F0B0FA414660810120FEF77FFC354B48
:105450001B6C5A0208D4E36913F0800F4FF4001359
:1054600014BF314A314A136031490868FFF716F812
:1054700000230B60237843F00403237000220AF01A
:105480008003134309D001212046FEF731FF2AF0A3
:10549000800749EA000947EA010AD4E9382309EA02
:1054A00002000AEA030102460B46134306460F4672
:1054B00016D0204BA4F10C0019683B468847002306
:1054C00006F0080213431EBF00221B4B1A6008237C
:1054D0001A4A1F40164056EA070301D0FFF766FF3D
:1054E000EB070AD51649174A0868002113681160AE
:1054F0000121154A117003B1984715F00E0F06D01F
:105500003B21002002B0BDE8F047FEF783BF02B0A8
:10551000BDE8F0870405002001000080F44E00B0D3
:10552000081002A8000002A8205001A8206001A8CD
:1055300030050020F0010020200500200000C0BF41
:105540003C050020380500203605002008B50A4B30
:10555000D3F84C315A1C0ED05B000CD40320FFF75B
:1055600091F84FF08062054B1A60012243F8382C05
:10557000022243F8242C08BD0080E00F4C1002A842
:105580004FF40022014B1A60704700BF402002A870
:10559000024B186CC0F3C040704700BF000002A867
:1055A000802102F0C3BF4078053801288CBF00205D
:1055B000012070470022014B1A70704740050020FF
:1055C00030B52A4B9A691C4612F0060F04D0407879
:1055D000042802D900225A6130BD12F004053DD0E2
:1055E0000B7813F0200300D08B78920719D50B7835
:1055F00003F00F03072B33D14B78022B30D98B7874
:1056000003F03F03012B2BD9CA7812F0040F27D0E7
:1056100012F0010F14BF0A230423920748BF063378
:10562000CB5CEBB1002D14BF02210121042840F610
:10563000FF7003F01F0208BF5200013A40EA023235
:105640000B48026542F20C004FF47065084A0902EB
:10565000155041F20C0011506361BDE72B46C4E7C1
:105660000023034A01211365ECE700BFA04E00B000
:10567000004000A8C36E4BB15B693BB11B680020C2
:105680009A1C08BF4FF0FF330B6070470120704732
:10569000044BC3F8881219B142F20102C3F8282260
:1056A000704700BF004001A838B50C46054600F021
:1056B00073F82146FFF7ECFF45B1EB6E33B15B6940
:1056C00023B1621C08BF6FF001041C60002038BDCC
:1056D000034BD3F8483201B10B601946FFF7E4BF22
:1056E0000080E00F07B50A4B1A7808236AB9094A07
:1056F000136000230193084B186800B10C3001A916
:10570000FFF7E6FF03B05DF804FB044AF0E700BFD3
:10571000F4010020FC1302A804050020FC2302A8C9
:1057200038B5044601F076F8E0782179164A40EA67
:105730000143C2F8DC34E579A37943EA0543C2F8B2
:10574000E03423781BB100230422FCF7D3FC6378F8
:105750002BB100230422E179A079FCF7CBFC22785D
:1057600001236AB1094A13606278022352B1074AE1
:105770001360A278064B1A70FFF7B4FF002038BD03
:10578000044AF0E7034AF3E700C00340D8D40340DB
:10579000F4010020D8E40340014B1878704700BFA3
:1057A000F40100204FF480330A4A1360A2F6FC7221
:1057B0001360094B9A68D1B2C2F3072299659A65C2
:1057C00004229A6500229A659A659A659A659A6597
:1057D000704700BF142100AA4C0000AA2DE9F74F22
:1057E00006681C469DF8303006F007060193B31D8D
:1057F00001269E40771E8A46436804EA0701A6EB0D
:10580000010843F0005B424505469146594418D9CA
:105810004246504603F07EFAA9EB080259460AEBCD
:10582000080003F077FA019B43B14C443E433440F7
:10583000EC60AB68A3421CBF0223AB6203B0BDE8BF
:10584000F08F504603F066FAEDE7000038B50C4CD7
:105850000D4622606060FCF739FA4FF02A430022BF
:10586000D3F81431E2605B075CBF0422054BA560EE
:1058700058BF1A60FCF73AFA0DB10223A36238BD93
:105880000C0000AA142100AA40F6FF72034B186016
:10589000034B196058605A62704700BF44050020EE
:1058A0004C0000AA032A2FD9436810B4846823440B
:1058B0005B4203F00303D21A53B10C78012B8461CD
:1058C00005D04C78022B84611CBF8C78846119440C
:1058D000032A0CD9131F23F0030304330B4451F89C
:1058E000044B99424463FAD102F003024AB10B78A7
:1058F000012A836105D04B78022A83611CBF8B7813
:1059000083615DF8044B704752B10B78012A8361C3
:1059100006D04B78022A836102D08B78836170476E
:10592000704737B5002514460095FFF757FF20460E
:1059300003B030BD402938B514464FF001030BD8F1
:10594000074D0A46AB6201462846FFF7ABFF2CB174
:1059500004230020AB6238BD1846FCE72046FAE776
:10596000CC0000AA10B5FCF7B1F90122194B1A4975
:105970009A629A661A64596407215966174B184C43
:10598000198000231749A4F6FC740B804FF4A02162
:10599000C4F8FC1F216014490B60144B1B6C5C02A3
:1059A00012D54FF48004124B12491B680C607BB176
:1059B000996A090608D44FF4001493F894300E49FC
:1059C0000C600BB10D4B1A60BDE81040FCF78EB9AE
:1059D000DB69FFDE4C0000AA48050020CA05002054
:1059E000142100AAC8050020CC050020000002A850
:1059F00004050020402002A8206001A8005101A851
:105A000007220B4BF0211A8000220A4B1A800A4B06
:105A10001A604FF4005258605A62084A1160A0217F
:105A2000A2F58052116001229A62FFF79BBF00BF6E
:105A3000CA050020C8050020CC0000AA486000A8C4
:105A40002DE9F0410446A8B1FCF740F9454E464B1C
:105A50003188032C01F07F0202F0780705461F44CD
:105A6000DFF828C169D1DCF800E0BEF1000F04D1F5
:105A7000FCF73CF90320BDE8F0812EF00104DCF8CE
:105A8000000020F00100A0425CD10023CCF80030DF
:105A90002388BC426FEA43436FEA5343238047D1D4
:105AA000324ADFF8ECC01388ACF18008CF18083B0D
:105AB0009BB204F10801F81A614528BF4146082B42
:105AC00080B204D9B1F900E0BEF1000F45DB1380CC
:105AD00022882749C2F30C02A778CA604FF48022BB
