S0100000746F67676C655F74782E73333717
S31500000000008000200D20000039200000392000006B
S315000000103920000039200000392000003920000076
S315000000203920000039200000392000003920000066
S315000000303920000038200000392000003920000057
S315000000403920000039200000392000003920000046
S315000000503920000039200000B9070000BD07000064
S315000000603920000039200000392000003920000026
S3150000007029060000392000003920000091170000F1
S315000000803920000039200000392000003920000006
S3150000009039200000B9020000392000003920000094
S315000000A039200000810300005903000039200000B8
S315000000B03920000039200000392000005D6800006A
S315000000C00D68000009680000595F000059680000CB
S315000000D0116800003168000015680000B96800006A
S315000000E0E54D00002D4E0000A168000039200000FB
S315000000F03920000039200000392000003920000096
S315000001003920000039200000392000003920000085
S315000001103920000039200000392000003920000075
S315000001203920000039200000392000003920000065
S315000001303920000039200000392000003920000055
S3150000014010B5054C237833B9044B13B1044800E0CD
S3150000015000BF0123237010BD8002002000000000B4
S315000001604CB3000008B5034B1BB10349034800E03C
S3150000017000BF08BD00000000840200204CB3000050
S31500000180154B002B08BF134B9D46A3F5803A002163
S315000001908B460F461348144A121A06F09EFF0F4B61
S315000001A0002B00D098470E4B002B00D0984700201C
S315000001B0002104000D000D48002802D00C4800E084
S315000001C000BF06F05BFF2000290001F011FC06F0DD
S315000001D041FF00BF00000800008000200000000072
S315000001E000000000800200203818002000000000F7
S315000001F00000000038B5104B05461B78BBB1C0B1F6
S3150000020000F02FFF00230D4901EB0312147B3CB9CC
S315000002102B6001231460137300F027FF204638BDBE
S315000002200133082BF0D100F020FF0548F7E7054819
S31500000230F5E70548F3E700BF1C0400209C020020F8
S31500000240048000F0028000F0018000F0164B13B528
S315000002501868002301908DF8043000F002FF134B5C
S315000002601C7824B100F001FF114802B010BD012234
S315000002701A7000F0FAFE0F4B1C731C7783F82C40A3
S3150000028083F83C4083F84C4083F85C4083F86C402C
S3150000029083F87C4004230DEB03008DF8073000F053
S315000002A0EFFF2046E1E700BF4C8000001C04002061
S315000002B0038000F09C0200202DE9F843174B1F6DC8
S315000002C05B6D1F4000D5FEE701260025144CDFF8C4
S315000002D05480DFF85490374217D02368C8F800607E
S315000002E09BB1A16862680131A16028469847637B8B
S315000002F0012B0AD148B909EB4513197B1A7F60F324
S31500000300410160F3410219731A770135082D4FEA4E
S31500000310460604F11004DED1BDE8F883000004406F
S315000003209C020020502004401C03002070B50446A7
S315000003300125084E04B970BD94FAA4F0B0FA80F015
S3150000034005FA00F324EA030456F82030002BF1D016
S315000003509847EFE720040020084BD3F82404D3F88D
S315000003602024104042F2204220F42A5020F02A0095
S315000003704004400C9850FFF7D9BF00BF00C00340AF
S31500000380084BD3F82404D3F82024104042F220422C
S3150000039020F4AA4020F055000004000C9850FFF706
S315000003A0C5BF00BF00C00340104A30B513684161A5
S315000003B01546ABB91060836011E0091B9C6841616A
S315000003C01A467CB123465C698C42F6D9002CF4D0DF
S315000003D052B19060836013B15A69511A596130BDA8
S315000003E00022F0E72346F4E72860F3E768040020DC
S315000003F010B500F0C1F8094B094A196831B1136804
S31500000400C41A4B69A34203D31B1B4B61106003E064
S31500000410C01A002310604B6110BD00BF68040020A5
S3150000042060040020074B10B51B6802205C69064B70
S315000004301B681C4400F0D4F82046BDE8104000F0CC
S31500000440A3B800BF680400206004002000210C4A05
S3150000045013687BB183420AD1836879B18B60836864
S315000004601BB15A6941690A445A610020704719460E
S315000004709B68EEE70028EFD0022070471360EEE796
S3150000048068040020C2072DE9F84F04460BD5374A09
S31500000490138801339BB21380FFF7AAFF344B1B6806
S315000004A00BB1FFF7BFFFA3075DD500F065F8314E2E
S315000004B0074635684FF0000A451B00F0D2FD80461E
S315000004C0DFF8AC90D9F80040002C48D06369AB4205
S315000004D009D95D1B65613760FFF7A4FF4046BDE89B
S315000004E0F84F00F0C2BD23462A463760596991424B
S315000004F009D8187994F804C0521A844588BF1C4656
S315000005009B68002BF2D1404600F0AFFDD4F8148072
S31500000510C4F814A000F0A5FD83462046FFF796FF19
S31500000520584600F0A2FD23694BB100F09AFD8346C0
S3150000053021692046FFF738FF584600F096FDE3682C
S3150000054013B121682046984700F016F84744ED1B82
S315000005500446054400F085FD27468046B2E70220A2
S3150000056000F04AF8BAE7BDE8F88F00BF640400203F
S3150000057068040020600400204FF090439A6A120736
S31500000580FCD4186A704700004FF09042936A19072E
S31500000590FCD4136A116C5269520604D4CA1A022A90
S315000005A001D899420ED1C21A012A98BF981CB0F1FF
S315000005B0FF3F28BF01304FF0904318649A6942F01C
S315000005C040029A61054A13783BB14FF09041CB6BDC
S315000005D043F00203CB630023137070470000002032
S315000005E082074FF0904200F00103916948BF43F043
S315000005F040030B4393617047830700F001020AD55D
S315000006000121084B42F0400219704FF09041CB6B2C
S3150000061023F00303CB634FF090418B6923EA020377
S315000006208B6170470000002010B500F01AFD4FF0F6
S31500000630904304465B695A06074A03F0010003F03B
S31500000640510348BF40F002001360FFF71BFF20462E
S31500000650BDE8104000F009BD1420004800221146F4
S315000006602D48F0B503682D4D54592CB11E68AC18B1
S31500000670002E3DD1234601210832282AF4D101B1AA
S315000006800360002214462649264E0B6895592DB163
S315000006901F68B518002F32D12B4601240832282AAC
S315000006A0F4D104B10B6000680368002B2FD04FF023
S315000006B04022936F007923F0FF7323F4803343EADB
S315000006C000439367184B4FF0004209681A600B68A5
S315000006D0FBB14FF04022936F097923F4FF7323F0A7
S315000006E001030B439367104B4FF080421A60F0BD35
S315000006F01E792779B74284BF23460121BCE71F79BB
S3150000070095F804C0BC453CBF2B460124C6E7074B01
S31500000710D9E7064BE8E700BF6C040020740400200C
S31500000720700400209C04002068500040686000406F
S315000007304FF04022D2F88800D2F88830C0F3880003
S31500000740C3F388039842F5D16FF48873184440B216
S31500000750704700004FF04022936E526E10B5134062
S3150000076013F0804211D0114B1B681C682CB100217C
S3150000077019605960FFF7DCFFA0474FF080420C4B31
S315000007801A60BDE81040FFF769BF002BF9DA094B84
S315000007901B681C682CB11A605A60FFF7C9FF01215B
S315000007A0A047034B4FF00042EAE700BF7004002069
S315000007B0646000406C040020FFF7CCBF054B5A690B
S315000007C0D20606D542F21402102199500122024B9C
S315000007D01A70704700800440C4040020054A13685C
S315000007E0DB06FCD44FF04023D3F88400C0F381101D
S315000007F0704700BF8440004038B5104B0546D3F81B
S3150000080020310C4603F00303022B0BD0032B0DD033
S31500000810012B0FD100F0B6FE052305B1286004B107
S31500000820237038BD00F0A8FE0323F6E700F0B2FE01
S315000008300223F2E700231846EFE700BF00800040DE
S3150000084073B50D4600210E4B0191D3F88041064643
S3150000085004F00304012C08D0022C0BD00EB1019B2E
S31500000860336005B1297002B070BD01A8FFF7C4FF5F
S315000008700D21F3E700F08EFE21460190EEE700BF62
S315000008800080004038B5174B0546D3F824310C4696
S3150000089003F00703013B052B20D8DFE803F0030F25
S315000008A0171B0B1300F06EFE052305B1286004B17B
S315000008B0237038BD00F066FE0623F6E700F05CFE06
S315000008C00323F2E700F058FE0423EEE700F062FE91
S315000008D00223EAE700F05CFE0723E6E7002318465A
S315000008E0E3E700BF0080004038B5104B0546D3F85B
S315000008F040310C4603F00303022B0BD0032B0DD023
S31500000900012B0FD100F04AFE092305B1286004B17E
S31500000910237038BD00F048FE0823F6E700F041FEDC
S315000009200A23F2E700231846EFE700BF00800040E5
S3150000093038B5134B0546D3F800320C4603F00703CF
S31500000940013B032B18D8DFE803F0020A0E1200F071
S3150000095025FE092305B1286004B1237038BD00F0D7
S3150000096023FE0823F6E700F01CFE0A23F2E700F058
S31500000970EDFD0C23800AEDE700231846EAE700BFE9
S315000009800080004038B5104B0546D3F840320C467F
S3150000099003F00303022B0BD0032B0DD0012B0FD139
S315000009A000F0FCFD092305B1286004B1237038BDB1
S315000009B000F0FAFD0823F6E700F0F3FD0A23F2E75C
S315000009C000231846EFE700BF0080004038B5104B03
S315000009D00546D3F860310C4603F00303022B0BD017
S315000009E0032B0DD0012B0FD100F0D8FD092305B143
S315000009F0286004B1237038BD00F0D6FD0823F6E761
S31500000A0000F0CFFD0A23F2E700231846EFE700BF08
S31500000A10008000400D4B10B4D3F820320A4603F094
S31500000A200303012B0AD0022B0CD008B1002303606C
S31500000A300AB1002313705DF8044B70475DF8044B50
S31500000A40FFF7DABE5DF8044BFFF74EBF00800040AB
S31500000A50430910B507D0012B0FD00A4C0A4A022BC6
S31500000A6014BF2346134600F01F0041B103F580531F
S31500000A70012202FA00F0186010BD044BF3E703F5FB
S31500000A800053F5E7608200406880004064800040C3
S31500000A90B0F5007F18D005D880B1B0F5C07F0DD075
S31500000AA000200FE0B0F5207F14D0B0F5607FF7D1BD
S31500000AB00B4BD3F88000C0F3011003E0084B186F0E
S31500000AC0C0F3033001307047054BD3F89000C0F3F4
S31500000AD00460F7E7024B186FC0F38020F2E700BF0F
S31500000AE000800040002313B53E280446019300F021
S31500000AF0B18042D82B2828D01FD8232813D00CD851
S31500000B00202849D004D8002846D0019802B010BD4C
S31500000B10212808D022283FD0F7E7292800F2908024
S31500000B202828C0F0838000F011FD02464FF42070A3
S31500000B30FFF7AEFFB2FBF0F071E0312810D82F2896
S31500000B40F1D22D2800F0818056D900F0FFFC024634
S31500000B504FF42070FFF79CFFB2FBF0F040085EE018
S31500000B603C2855D83A28DED2382864D03928CCD14A
S31500000B70002101A8FFF786FEC7E7B0F5007F50D039
S31500000B801BD8522852D00AD84D2805D002D83F2863
S31500000B90C9D0BAE74F28B8D300F0D8FC3FE0802888
S31500000BA03BD004D8A0F16004012CF5D9ADE7B0F52F
S31500000BB0807F21D0B0F5C07FADE7B0F5A06F3AD009
S31500000BC010D8B0F5607F2CD006D8B0F5207FAAD01B
S31500000BD0B0F5407FB9D098E7B0F5806F26D0B0F574
S31500000BE0906FC4E7B0F5D06F2FD00AD8B0F5B06FCC
S31500000BF026D0B0F5C06F88D1002101A8FFF774FE9A
S31500000C0083E7B0F5E06F25D0B0F5F06F7FF47DAFE8
S31500000C10002101A8FFF7DAFE77E700F07DFC0190DE
S31500000C2073E700F079FC0246204681E7002101A81F
S31500000C30FFF7E2FD69E7002101A8FFF7EBFE64E795
S31500000C40002101A8FFF7FCFD5FE7002101A8FFF7DF
S31500000C506FFE5AE7002101A8FFF794FE55E7000052
S31500000C6008B58020FFF73EFF044B98429FBF42F233
S31500000C7070034FF48031024AD15008BD005A620217
S31500000C800080004038B5054641F268034FF4003055
S31500000C900D4AD0500020FFF7FBFE41F671320B4B98
S31500000CA06843DC690A4DDA639A68A84204F4803422
S31500000CB022F4401203D9012918BF42F480129A6027
S31500000CC00CB10022DA6338BD00800040000003400A
S31500000CD0005A620208B500F04BFCBDE8084000214E
S31500000CE0FFF7D0BF0029CCBF01210021FFF7CABF03
S31500000CF010B50446FFF7EEFF00F054F841F270031A
S31500000D004FF480310C4A013CD150106F20F47040F2
S31500000D1040EA0430106700F019FC0446FFF75EFD58
S31500000D20C0F102012046FFF7DDFF00F041F8BDE803
S31500000D301040FFF795BF00BF00800040B0F5007F70
S31500000D401AD004D850B1B0F5C07F07D07047B0F5BF
S31500000D50207F1CD0B0F5607F03D070470846FFF7B0
S31500000D60C7BF0F4A0139D2F8803023F0300343EA77
S31500000D700111C2F880107047094A0139D2F8903043
S31500000D8023F0F85343EA0161C2F890107047044A11
S31500000D900139136F23F4806343EA81211167704799
S31500000DA00080004002214FF42070FFF7C7BF00000B
S31500000DB008B54FF4C070FFF795FEBDE8084004493A
S31500000DC088428CBF022101214FF42070FFF7B6BF85
S31500000DD080F0FA02B0F5807F70B50C460DD040D891
S31500000DE02D2800F0128119D82A285DD003D824387E
S31500000DF0032842D970BD2C28FCD1083CE4B2022C51
S31500000E008CBF00218A4B8B4A98BF195DD2F84031BE
S31500000E1023F003030B43C2F84031EBE73D2800F013
S31500000E20D28011D83828E5D10D2C00F0FF800E2C89
S31500000E300CBF022100217F4AD2F8203223F003039F
S31500000E400B43C2F82032D5E73E2847D08028D1D1BF
S31500000E508B1E052B00F2B480DFE803F0AF9CB2696D
S31500000E60B2ACB0F5C06FC8D02DD8B0F5906F00F019
S31500000E70BB8013D8B0F5806FBCD1023CE4B2032C22
S31500000E808CBF00216C4B6B4A98BF195DD2F820319C
S31500000E9023F003030B43C2F82031ABE7B0F5A06F94
S31500000EA0C2D0B0F5B06FA5D1022C03D0A4F10D03CA
S31500000EB05C425C415F4AD2F8803123F003031C4355
S31500000EC0C2F8804196E7B0F5F06F7CD017D8B0F540
S31500000ED0D06F00F09A80B0F5E06F8BD1083CE4B299
S31500000EE0022C8CBF0021554B524A98BF195DD2F88F
S31500000EF0403223F003030B43C2F840327AE7B0F5E1
S31500000F00006F71D0B0F5086F7FF474AFCC1EE4B2F9
S31500000F10052C8CBF00214A4B464A98BF195DD2F872
S31500000F20003123F003030B43C2F8003162E70025CA
S31500000F3002260121022000F09BF8FFF7CBFEFFF707
S31500000F4031FF4FF4803141F270033A4AD150136FAA
S31500000F5023F007033343136700F0F8FA0646FFF75A
S31500000F603DFCC0F102013046FFF7BCFE0121002026
S31500000F7000F0B6F8FFF71CFFFFF772FE002D7FF4B6
S31500000F8039AF032C7FF436AF42F2280301212D4AF4
S31500000F90D1502FE741F264034FF40021254A03267E
S31500000FA0D15041F228020121264B9D6A9950C5F382
S31500000FB04005BEE700250426BBE700250126B8E765
S31500000FC000252E46B5E7083CE4B2022C8CBF002172
S31500000FD01D4B184A98BF195DD2F8603123F0030300
S31500000FE00B43C2F8603105E7023CE4B2052C8CBF26
S31500000FF00021164B0F4A98BF195DD2F8243123F011
S3150000100007030B43C2F82431F4E6083CE4B2042C8F
S315000010108CBF00210E4B074A98BF195DD2F80032EB
S3150000102023F007030B43C2F80032E3E6012102E78F
S315000010305480000000800040508000005480000072
S315000010406280000000C0004054800000578000000D
S315000010505D800000EFF3108072B6704700B962B68B
S315000010607047EFF3108072B67047FFF7F7BF0000C6
S3150000107038B50446194A1368D806FCD44FF0402305
S31500001080D3F88430C3F381139C4225D000F044FA90
S31500001090012C054602D12146FFF724FEFFF7DAFFB1
S315000010A04FF48062631E9A404FF040231A67D3F8CC
S315000010B08420D10603D5D3F88420920609D5FFF7FC
S315000010C0CDFF022C08D12846BDE838400021FFF7A5
S315000010D009BED3F88420EAE738BD00BF844000404B
S315000010E010B50C4608B900F017FA074B21461B78D5
S315000010F03BB1064B984204D80120BDE81040FFF7EB
S31500001100B7BF0220F9E700BFC5040020005A6202FB
S3150000111041F264034FF00041164A10B5D15041F236
S31500001120040101224AF6CD34134B5A50596C1C6403
S3150000113078B942F208001A50DA6AD007FCD542F2B2
S31500001140040201209850012902BF0B4B0B4A1A6476
S3150000115010BDDA6A1207FCD442F22402202098500D
S3150000116041F2080201209850034A536A9B06FCD5B7
S31500001170E9E700BF00800040004009403254FFFF0D
S3150000118038B54FF0004141F26403194A194CD15069
S31500001190012241F20403E2504AF6CD33656C236422
S315000011A04378934013434FF04022D363A368827879
S315000011B023F0740343EA0213C278002A14BF042200
S315000011C000221343A3600279837943EA0223236151
S315000011D04279C379007843EA02236361FFF798FFF7
S315000011E0012D08BF044B4FF0010008BF236438BD32
S315000011F000800040004009403254FFFFF0B54AB17C
S31500001200012530241D4E8D4004FB00640BB341F2D2
S315000012101006A55130244443072904F1804404F5FF
S31500001220703419D80F2765688E00B74025EA070580
S3150000123002FA06F63543656052B9012202FA01F157
S3150000124030220E4C02FB0040A3B141F21003C15004
S31500001250F0BD42F21006DCE70F2701F18045083D9C
S31500001260E668AD00AF4026EA070602FA05F5354303
S31500001270E560E1E742F21003E9E700BF00C0034082
S3150000128010B5012104462020FFF7E2FB01212120B1
S31500001290FFF7DEFB0122114B5A60227812069A6094
S315000012A06178A27842EA01429A61FF229A6200229C
S315000012B09A631A644FF000424FF0FF315A6542F2CA
S315000012C0500299504FF40011054AC2F88011E37894
S315000012D01B01DBB282F81533116010BD000004401B
S315000012E000E100E041F264034FF48031064AD15038
S315000012F0064B5B69C3F38512827003F03F021B0B3A
S3150000130042700370704700BF0080004000C0074075
S3150000131070B5054616461C4621B94FF42070FFF7F6
S31500001320E1FB0146202C08D001D8ECB170BD402C61
S3150000133018D0602CFAD1042200E0082206FB02F342
S315000013405A0802EB4112B2FBF3F2084B203A03EAC9
S31500001350C202AB6823F06003AB60AB681C43AC60B1
S31500001360EA61E3E70622E9E71022E7E7F8FF7F00F4
S31500001370012241F20403C250CB43934003F00A0317
S315000013804361416111B942F20403C2507047000043
S3150000139041F204030122C25040F6AA6341F205025B
S315000013A0436100238360C365C26042F248020C4970
S315000013B00361C361C36481500A4A8365904202D0C7
S315000013C00949884207D19042036502D0064B9842EC
S315000013D001D10023436542F204030122C250704743
S315000013E0FFFF010000C005400000064038B50D466D
S315000013F00446FFF7CDFF41F204030122C250AB7C45
S315000014001BB1836843F080438360EB7C5BB1324A57
S315000014102B7D944243D1A2F51032C2F88C31E36D94
S3150000142043F08003E3652A8A6B7B20461343EA89EF
S315000014301343E360D5E901122B7BFFF769FF6B7D50
S315000014401BB1A36843F48033A360AB7DEA7D1B0721
S31500001450120502F4E00203F0E043297E1343A3657C
S315000014608B1E012B1C4A1D4B23D894421FD002F51C
S31500001470804294420CBF01224FF0FF3203EB42132D
S31500001480022041F21C62032998500CBF41F25C0312
S3150000149042F25C030422E2502B78636138BD104AA5
S315000014A0944204BFA2F52032C2F89C31B7E700226D
S315000014B0E4E794420DD00A4A94420CBF01224FF051
S315000014C0FF3203EB4213022042F21C6201299850BC
S315000014D0DBE70022F5E700BF00C0054000C003407F
S315000014E00000064083691B06FCD5406AC0B27047FF
S315000014F083695B06FCD5C16370470000044B054A4F
S315000015009A60D3F8882042F47002C3F888207047A6
S3150000151000ED00E000000000084B1B6F03F007031E
S31500001520022B04D0032B05D0012B05D0FEE7044B7C
S3150000153018687047034BFBE703487047008000407C
S31500001540080000200C000020002D310108B5FFF72F
S31500001550E3FF054B1B6FC3F303330133B0FBF3F01B
S31500001560024B186008BD00BF008000400400002048
S315000015700048704700B4C404014B1868704700BFA8
S315000015800C000020014B1868704700BF08000020BF
S315000015900020704700487047002D31014FF400408D
S315000015A070474FF47A707047014B1868704700BF58
S315000015B01000002007B56B46044A1068516803C343
S315000015C06846FFF7DDFD03B05DF804FB68800000A8
S315000015D008B503218020FFF7FDFB09214FF4C06009
S315000015E0FFF7F8FB09214FF4F060FFF7F3FB092141
S315000015F03E20FFF7EFFBBDE8084009212D20FFF74D
S31500001600E9BB00000E4B10B51B68C3F30743012B63
S3150000161010D10C4B4FF48022596E41F264004903FD
S315000016204FF0040458BF42F264011A5006480460A1
S3150000163058BF5A50FFF7BEFFBDE81040FFF7C8BFBE
S315000016400080E00F008000402020014008B5012105
S315000016503A20FFF7FDF900F004F8BDE8084000F075
S31500001660BFB808B501213A20FFF7F2F9002304229A
S3150000167019460120FFF7C2FD002008BD18B9012256
S31500001680024B1A6070474FF0FF30704740D003405E
S3150000169008B500F001F808BD7FB5FFF7B3FFFFF707
S315000016A0D5FF1422002101A805F017FD0223164AD2
S315000016B08DF80430029204228DF80D308DF8133027
S315000016C005230DEB02014FF0FF308DF80E208DF84B
S315000016D0143001F085F801230C494FF0FF308B7070
S315000016E000F0E8FEFEF7B2FD094B984200D040B983
S315000016F000216846FEF77EFD18B99DF8000000F04F
S31500001700D7FC07B05DF804FB006A180098060020B5
S31500001710038000F000207047FEE74FF400530020DE
S315000017204B6070470120704700207047F8B50E46A1
S315000017300D468F18BD42A5EB060405D1002C08BF47
S315000017404FF0FF342046F8BD00F0A8F8431CF5D052
S3150000175005F8010BEEE70000044B0246196809B9CB
S3150000176003491960186802441A607047C8040020CB
S315000017703818002070B50E4615460C46A31B9D4230
S3150000178001DC284670BD14F8010B00F0B9F8F5E746
S315000017900F4870B583691B0614D50E4D2B68072BB1
S315000017A011DC0D4C2668FFF79DFE0C4B98552368FF
S315000017B0013323602B6801332B602368082B01D18A
S315000017C00023236070BDC36C23F00403C364F9E7F0
S315000017D000000640D8040020E0040020CE040020CB
S315000017E030B5012189B03A20FFF732F9254D0123A2
S315000017F0042205210020FFF701FD01AC012302228E
S3150000180006210020FFF7FAFC0FCD0FC495E807006C
S31500001810002584E807001C4C01212920FFF718F950
S3150000182008A901F81C5D2046FFF7E0FD1423174ABE
S315000018304FF40041C2F83C364FF4A023C2F85436A8
S315000018404FF4C023C2F84C3642F248030422E25059
S315000018500F4B2046C3F88011E26C42F00402E264AA
S3150000186019600521FFF784FD0A4B022218682946F4
S315000018702B46806805F052FC0122074B1A7009B00E
S3150000188030BD00BF708000000000064000C003406D
S3150000189000E100E014020020CD040020134B10B537
S315000018A01B780BB9FFF79CFFFFF7DBFB104B1A68A1
S315000018B0002A18DD0F4A104C1168645C1168E4B206
S315000018C0013111601168082904BF002111601A68EE
S315000018D0013A1A60094AD36C43F00403D364FFF754
S315000018E0C4FB204610BD4FF0FF34F8E7CD040020BE
S315000018F0D8040020DC040020CE04002000000640AE
S315000019000A4B10B51B7804460BB9FFF769FF084B65
S315000019101B782BB10A2C03D10D210648FFF7E8FDF1
S3150000192021460448FFF7E4FD204610BDCD04002003
S31500001930CC0400200000064008B510B9FFF79EFE53
S31500001940FEE708BD08B5FFF7A9FF43B20133FAD099
S31500001950C0B208BD70B5144600221D4603F08003D0
S315000019601343064608D00022114600F093FBB0FA56
S3150000197080F04009FFF7E0FF224625F0800313437D
S3150000198016D00C4B1B78022B05D12B463046BDE8F2
S31500001990704000F0EDBA012B05D12B463046BDE86C
S315000019A0704000F0CFB90020BDE87040FFF7C4BF1B
S315000019B070BD00BFE80400204FF4805313B502AA9F
S315000019C022F8023D094900F0D1FE0446BDF80600A2
S315000019D0A0F5805358425841FFF7AEFFB4FA84F0A1
S315000019E04009FFF7A9FF002002B010BDA0060020A5
S315000019F02DE9F04F87B04FF4807202AF0021834883
S31500001A0005F06BFB4FF480520021814805F065FB21
S31500001A10804B1B68C3F30743012B0ED14FF4802282
S31500001A2041F2640004247C4B596E1A507B480460D2
S31500001A3048035CBF42F264015A50FFF729FEFFF7E4
S31500001A40CFFE68220021764805F047FB4FF4D4729A
S31500001A500021744805F041FB0021734800F0EEFABE
S31500001A60724C00252060003018BF0120FFF764FF8C
S31500001A704FF00111206800F064FEB0FA80F04009D2
S31500001A80FFF75AFF6A4B00221968206800F0D6FC5F
S31500001A9040F6E4437B810A2307F108012068BB81F5
S31500001AA03D7200F0A8FDB0FA80F04009FFF744FF50
S31500001AB00121206800F0DCFDB0FA80F04009FFF754
S31500001AC03BFF2946206800F0AFFDB0FA80F04009E0
S31500001AD0FFF732FF00228023CDE900234FF0FF32CB
S31500001AE04FF0FF33206800F0DBFCB0FA80F04009CD
S31500001AF0FFF722FF4F4B07F1100141F80C3D20681C
S31500001B0000F028FEB0FA80F04009FFF715FF2A46DC
S31500001B104FF480733D49206800F024FEA0F58071E3
S31500001B2048424841FFF708FF01222068114600F0AD
S31500001B302DFE414DDFF8D880FFF704FF74282FD122
S31500001B402878EA46B0FA80F04009FFF7F5FE02234E
S31500001B5001202B700026FFF7EFFEFFF7F3FE07F1DB
S31500001B60080398550136052EF7D1FFF7EBFEA0F1D5
S31500001B700A0250425041FFF7DFFE3E89B7F80A904D
S31500001B8097F80CB00A20FFF7BBFE5B462068D546E7
S31500001B904A46314600F054F9206800F0A9F9CBE72F
S31500001BA072282FD12878E946B0FA80F04009FFF76D
S31500001BB0C3FE012000262870FFF7BEFEFFF7C2FE17
S31500001BC007F1080398550136052EF7D1FFF7BAFE3F
S31500001BD0A0F10A0358425841FFF7AEFE3E89B7F816
S31500001BE00AA097F80CB00A20FFF78AFE3146206853
S31500001BF0CD465B46524600F025F84146206800F087
S31500001C0047F899E70020FFF797FE95E7A016002012
S31500001C10A00600200080E00F008000402020014048
S31500001C20A01700202000002014000020E40400205B
S31500001C30CC01002000020101E804002000207047CA
S31500001C4070470000F7B50F4616461D46044600F0DD
S31500001C500FFAFFF771FE0B4B0B4A1F800B4B1570EB
S31500001C601E804FF4CC4200232046CDE9002300F02D
S31500001C7017FCB0FA80F0400903B0BDE8F040FFF76A
S31500001C805BBE00BFEA040020E9040020EC0400204B
S31500001C902DE9FF4101250646234B2A461B880C46A3
S31500001CA00093224B00211B888DF804500293ADF857
S31500001CB00C508DF80E5000F069FD1D4900236A4650
S31500001CC00978304600F0E2F9B0FA80F04009FFF7F3
S31500001CD033FE184B1D701A7802F0FF05002AFAD160
S31500001CE0154E02273068DFF858800028D4BF002040
S31500001CF00120FFF721FE04233168104891FBF3F120
S31500001D0005F0F4F93368043493FBF7F3AB4202DCD5
S31500001D1004B0BDE8F08134F9022C34F9041C4046C5
S31500001D2005F0E4F90235EDE7EA040020EC040020B2
S31500001D30E9040020F4040020F00400202B840000B5
S31500001D402884000000232DE9F041174602F40052D2
S31500001D501343064618D000F015FD01221A4BC0F3B6
S31500001D608F008000186011463046184C00F086F946
S31500001D7001220021304600F009FD2078FFF7DCFD46
S31500001D8000232370BDE8F081002307F48C4213433F
S31500001D9015D0002307F40072134302D00020FFF78A
S31500001DA0CBFD002307F48062134302D00020FFF727
S31500001DB0C3FD002507F4804454EA0503E2D0BDE8DC
S31500001DC0F0410020FFF7B8BDF0040020F404002025
S31500001DD0FF2307B502A901F8043D0122002300F004
S31500001DE0BDFC431E58425841FFF7A6FD03B05DF8FF
S31500001DF004FB00001FB50E4C0022236802934FF42B
S31500001E008073ADF80C300B4B1978009202AB00F0E2
S31500001E1039F9B0FA80F04009FFF78EFD064B2268CB
S31500001E201B88134401222360044B1A7004B010BDB2
S31500001E30F8040020F5040020FC040020D401002052
S31500001E40F0B50F4604461E4687B0154600F010F959
S31500001E50FFF772FD224B234A1F80234B02A91B88E2
S31500001E6020461670ADF8083000F012FBB0FA80F08C
S31500001E704009FFF761FD08231C4A2046CDE90023EF
S31500001E8000F00EFBB0FA80F04009FFF755FD4FF069
S31500001E9064130393642303A92046ADF81230ADF80A
S31500001EA01430ADF81630ADF8105000F031F9B0FA34
S31500001EB080F04009FFF740FD0421204600F05AFC5F
S31500001EC0031F58425841FFF737FD0121204600F015
S31500001ED0E3FA421E50425041FFF72EFD07B0F0BD17
S31500001EE0FC040020F50400202F840000000060950B
S31500001EF070B500220121044600F048FC00F073FC96
S31500001F000926184B184D1B8803EB830303442B60EB
S31500001F102046FFF75DFF013EFAD12046FFF76AFF34
S31500001F20124E204600F02AFC00F05DFC2B68984219
S31500001F302CBF00200120FFF7FFFC3378002BFCD1DB
S31500001F402046FFF745FF2046FFF754FFFFF7A6FCA4
S31500001F5040B2692805D0431C58425841FFF7ECFCB3
S31500001F60DFE770BDFC040020F8040020D401002047
S31500001F70F8B51F460023164602F48002134306D026
S31500001F80204C2078FFF7D8FC00232370F8BD0821E9
S31500001F901D4801EA070300EA060213432DD0002379
S31500001FA006F40012134302D00020FFF7C5FC0023FD
S31500001FB006F08072134302D00020FFF7BDFC002319
S31500001FC006F08062134302D00020FFF7B5FC002321
S31500001FD006F08052134302D00020FFF7ADFC002329
S31500001FE006F00042134302D00020FFF7A5FC0024B0
S31500001FF007F0080554EA0503C8D0BDE8F8400020FC
S31500002000FFF79ABCD40100200000209506488047BF
S315000020100649074A074B9A42BEBF51F8040B42F8DD
S31500002020040BF8E7FEF7ACF8FD14000058B3000007
S315000020300000002080020020FEE700BF70B50E46BB
S31500002040044678B1084D2B7863B9084B186000F048
S3150000205041F83146204600F02DF8031C18BF012335
S315000020602B7070BD0020FCE7040500200005002051
S31500002070014B1878704700BF04050020084611463A
S3150000208000F03CB800B10C3001F04ABB00B10C3096
S3150000209000F013BA00B10C3000F023BB7047431EAA
S315000020A0012B03D9031F584258417047012070473E
S315000020B000F062BC38B504460D460021FFF7C0FDAE
S315000020C02946204601F0B2F900280CBF2046002020
S315000020D038BD000010B5044600F0A0FC44B1054A26
S315000020E0D4F88030002B08BF1346034A136010BD96
S315000020F0636FFFDE9D200000D801002010B50C465E
S3150000210000F098FC1CB100F0F3FC0128FBD110BDD7
S3150000211000B10C3001F0F0B92DE9F04FDFF8709105
S3150000212085B004468B4616468DF80F3001F0E6FB67
S31500002130B9F8005001F004FC00283CD1524F002EA3
S315000021403ED0386000F0D4FC012865D1DFF844A108
S31500002150A26EDAF80030E06E002B65D0934266D0AE
S315000021601D68116802680DB18D426FD0204601F0DE
S31500002170B3F8012200230546CDE90123D4F87C807B
S31500002180B8F1000F72D000220DF10F031146204660
S31500002190C0474DBBD4E91A23CAF800203B60E6B914
S315000021A0029B002B59D1019B002B56D100252846B6
S315000021B005B0BDE8F08F0023334F3B6001F0B8FB5C
S315000021C0E36E3A689342BDD1002BBBD05D45EDD09E
S315000021D000F08EFC0128B9D01EE03146C9F800B0E7
S315000021E0204600F095FE05460EB9019B83B1B5FA6F
S315000021F085F03321400900F0E5FA9DF80F102046DE
S3150000220001F076F8214BE16E1B68A4F10C009847AB
S31500002210284605B0BDE8F08F012000F00BFC00F069
S3150000222067FC0128FBD191E7116802689EE73968CF
S31500002230002995D0814293D1B5EB0B024FF00003F4
S3150000224018BF0122019302921D4697E7396811B122
S315000022500968914205D0596888E7C9F800B0019924
S31500002260BEE701230025CDE9013587E7217994F8FA
S31500002270B8309DF80F20994228BF1946204600F035
S31500002280DCFD002DB0D185E710050020D801002027
S31500002290080500200C0500202DE9F04F074683B005
S315000022A00E46FEF7D7FEFB6E814613B13B89B3425D
S315000022B048D0BB6E002B53D09C68002C50D0D968F8
S315000022C000294DD0D7F87CA0BAF1000F50D04FF0BE
S315000022D00008A7F10C0B4046454600E09C6805EB5C
S315000022E0450204EBC204E2890135B24215D8228ABE
S315000022F0B24212D3B4F91220B7F92A1101939142CE
S3150000230017DD97F8AC10584604F0F2FA3A79804691
S3150000231082420ED92046019BD9688D42DED338B958
S3150000232001244846FEF79AFE204603B0BDE8F08F2A
S3150000233004460023224619463846D0473E81FC66AD
S3150000234087F8B880002331461A463846FFF7E4FE80
S3150000235004464846FEF782FE204603B0BDE8F08FED
S3150000236003244846FEF77AFE204603B0BDE8F08F08
S31500002370D0465046554647F6FF7BA7F10C0A0EE0BD
S3150000238097F8AC10504604F0B3FA3A798046824288
S31500002390D4D92046019BD9688D4213D29C6805EB9F
S315000023A0450204EBC204E2890135B242F4D8228A1E
S315000023B0B242F1D3B4F9122001935A45E0D14FF05D
S315000023C0FF08BBE70028ABD00446B7E7F8B50D1CFD
S315000023D018BF01250E46074600241F21284600F097
S315000023E0F1F9304601F008FE1F21284687F8C8405B
S315000023F0C7E91A6400F0E6F94FF6FF721820F16893
S31500002400E3B28B420BD3154600230A4A29461360D2
S31500002410094A38461360FFF73FFF2846F8BDB568FE
S3150000242000FB0353DD89954202D2002DECD02A46EB
S315000024300134E5E70C0500201005002000B10C3042
S31500002440054B002A08BF1A46044B1A6009B1FFF76C
S31500002450BDBF0846704700BF9D200000D801002080
S31500002460008970470A7838B505461046FFF717FE0B
S3150000247060B14C782046FFF712FE38B1224353076D
S3150000248004D42846BDE8384000F08ABC012038BD97
S3150000249000B10C30FFF7E6BF00B10C3000F006BA11
S315000024A030B4DDE9024500B10C30CDE9024530BC5F
S315000024B000F064BA084601F00BBB70B504460D4641
S315000024C01646FFF7E9FE30B9324629462046BDE8F2
S315000024D0704000F055BB70BDF0B587B004460F469E
S315000024E01646ADF806101D46E3B190F8B730BBB9F5
S315000024F000F1AC0393E8030094F8B5300490C0B241
S315000025009842ADF8141005D006A901F8083D2046FA
S3150000251000F06EFC2A7894F8B610204600F08DFC88
S31500002520002028E0A0F10C053ABB00F1AC0393E8CB
S31500002530030004AA0490ADF81410A4F82A71E36EFF
S315000025400DF10601284600F051F9A0B99DF81010CA
S315000025502846BDF9062004F0CBF904A90546204615
S3150000256000F046FC38B92946204600F085FCBDF847
S315000025700630A4F82C3107B0F0BDB2F91230B0F92C
S315000025802A2106A99342A8BF1346284621F80A3DE8
S3150000259004AA334600F02AF984F8B700B6F91220E7
S315000025A0BDF90E309A42A8BF1A469DF81030ADF814
S315000025B00E20032B04BF012384F8B73094F8B730FC
S315000025C06BB1B4F92C31934209DD04F1AC0393E805
S315000025D0030000230490ADF8141084F8B7309DF87A
S315000025E01010A4F82C2184F8B510284604F080F9C0
S315000025F084F8B60094E738B5044648880D4601F0DD
S31500002600F9FC4CB1D4F8883043B9294604F10C00E2
S31500002610BDE8384000F0ECBBE36FFFDE022038BDBA
S3150000262000B10C3000F06ABCF7B5044600200F4636
S3150000263001F0E0FCD4B1D4F8885004F10C067DB961
S3150000264069462046FFF7ECFF9DF800103A46204603
S3150000265004F04EF90146304600F00EFC03B0F0BD22
S31500002660002339461A463046A847F7E7E36FFFDEF0
S3150000267000B10C300029034B08BF0023C3670020BC
S31500002680704700BFD924000038B504460D46FEF752
S31500002690E1FC0023A5616361BDE83840FEF7DEBCBE
S315000026A038B505460C46FEF7D5FCA9696B690C40A2
S315000026B023436B61FEF7D2FC00200CB9002138BD24
S315000026C08021FCE738B505460C46FEF7C3FCA96930
S315000026D021406C6924EA01046C61FEF7BFFC2046C8
S315000026E038BD73B5054614460E4681B94FF0FF3323
S315000026F00193EAB96C6928462146FFF7E3FF2246B3
S3150000270001A9284600F028FB6EB902B070BD0B681F
S315000027100193002AEED01146FFF7D4FF224601A905
S31500002720284600F019FB0028EFD1019B3360ECE747
S315000027301146FFF7C7FF224601A9284600F00CFB09
S31500002740E3E708B500B10C3001F00111FFF79CFF7B
S31500002750002008BD00B10C3000F05ABD00B10C30AD
S3150000276000F01EBD00B10C3000F0CABC00B10C3048
S3150000277000F0E3BC00B10C3000F082BC00B10C30BC
S3150000278000F0A6BC00B10C3000F0B2BC38B515465E
S3150000279058B100F10C0411B1204600F0E9FC35B146
S315000027A02046BDE8384000F06DBD0446F3E738BD6D
S315000027B0024B1960024B1860FEE700BFDC010020E7
S315000027C0E001002008B528B9034B1960034B1868CF
S315000027D0FFF7EEFF08BD00BFDC010020000500206A
S315000027E0084600F0B5BE00F009BE000003231370D2
S315000027F0104B70B5587950B9B1F90040B3F9006083
S31500002800B3F90250A642187901DCA5420CDAD87A4F
S3150000281058B9B3F90840987AB1F90010B3F90630FF
S315000028208B4202DC8C4200DB10701078C31E5842CB
S31500002830584170BDE4010020024BD868C0F3036024
S31500002840704700BF000002A87047000038B16FF063
S31500002850FF02034B10401A60A3F5805318607047BF
S3150000286024E000A8C2690F4B02F06002402A12D091
S31500002870602A04D0202A12D10122DA6107E071B160
S315000028800A68012A0BD94A6942F00102DA618022FC
S31500002890054B1A61704740F20112DA61F7E7002230
S315000028A0DA61F4E7484F00B0000002A80246234B65
S315000028B0234810B5186090894FF6FF73A1B9984266
S315000028C008BF204B4FF0070102BF1B6AC3F30B037F
S315000028D0A2F82431002393811B4A18461160052172
S315000028E0A2F58052116010BD994210D18842FAD0EB
S315000028F00720154B134C1860236AB2F8240123F401
S315000029007F6323F00F03034323629181EBE7984231
S3150000291004BF0C4B1B6A918104BFC3F30B03A2F8DF
S3150000292024310722B1F5805F28BF4FF48051064B52
S3150000293008461A60034B4A1E1A62D4E7280500208F
S31500002940AD280000004000A80C6000A800F01803A5
S31500002950182B084B02D100221A627047010702D5D4
S3150000296001221A627047C206F5D540F201121A62B8
S31500002970704700BF484F00B0032070472DE9F34B66
S31500002980DDE90A67D0E938890446002588EA0600A9
S3150000299089EA070101EA030C00EA020B8CEA090145
S315000029A08BEA0800C4E9380122F0010006EA0008B3
S315000029B007EA03091946CDE9005549F0800348F0B6
S315000029C0004202F053FE2378DB0720D5D4E93823F2
S315000029D0002003F0800150EA010318D04FF4803143
S315000029E02046FFF75DFE237865F300032370D4E9E4
S315000029F0382302EA000503EA010655EA060306D073
S31500002A0005492A4609683346A4F10C008847002088
S31500002A1002B0BDE8F08B00BFF0010020034A036856
S31500002A20002B08BF1346024A13607047492800006E
S31500002A30F00100202DE9F34103284BD8DFE800F030
S31500002A4046023E42002401262546FEF703FB0746C2
S31500002A5002F0E4FF804640B100230022CDE90033B6
S31500002A6001200023002102F001FE2946304603F032
S31500002A706FF922462946304603F0CEF9B8F1000F29
S31500002A8016D0164B1B6803B10C33154A126C520252
S31500002A9008D4DB6913F0800F4FF4001314BF114AFA
S31500002AA0114A136011490868FFF7D0FE00230B6036
S31500002AB0384602B0BDE8F041FEF7D0BA0125002441
S31500002AC02E46C2E7012425462646BEE700242546B3
S31500002AD02646BAE702B0BDE8F08100BF0005002037
S31500002AE0000002A8205001A8206001A82C050020A3
S31500002AF008B5FFF7A1FE01380B280DD8DFE800F076
S31500002B0014140614141414080A080808032008BD2F
S31500002B100420FCE70520FAE7044B5B6913F0060F77
S31500002B2014BF04200120F2E70220F0E700C001A84C
S31500002B30034B1B6C13F0A00F0CBF01200020704745
S31500002B40000002A810B50246FFF7D2FF012813D1F4
S31500002B50C1F159047F2C0EDC9170FEF77BFA074A0F
S31500002B60E402136A04F4FF2423F4FF231C431462D3
S31500002B70FEF774FA002010BD0220FCE700C000A892
S31500002B80114602F095BF00000138C0B202284FF08E
S31500002B9060518EBF00220D4B53F820200C4B0020B5
S31500002BA01960A3F580531A604FF400124FF080515C
S31500002BB01A60084A936F23F0060343F004039367F1
S31500002BC0054B19600423C2F88C307047348400002A
S31500002BD0206001A8004000A84C1002A8114B1B78E9
S31500002BE013B10622104B1A600022104BC3F88C203A
S31500002BF04FF0805203F5F0334C331A600C4B1B6CCC
S31500002C0013F4800F0B4B08D1C26912F0800F4FF4FA
S31500002C10001216BF08491A600A604FF06052002081
S31500002C201A60704718050020786000A8004000A8C8
S31500002C30000002A8206001A8205001A870B5154622
S31500002C40C269064682EA05030B405340C361080782
S31500002C500C4606D5082315F0080F14BF334A344A2C
S31500002C601360E10706D5012315F0010F14BF2F4AA3
S31500002C702F4A136062070CD503F052F84FF4007325
S31500002C8015F0040F14BF2B4A2B4A136004222B4B5A
S31500002C901A60A30706D5022315F0020F14BF234AB4
S31500002CA0234A1360E00606D515F0100F14BF002264
S31500002CB01B22234B5A6521061ED52A0625D54FF41D
S31500002CC00012204B1A60012203F587531A60FEF7A3
S31500002CD0C1F90146FFF7B0FD032806D11A4AD368A9
S31500002CE023F0F00343F0E003D36040F20122144BDB
S31500002CF00846DA62FEF7B2F914F0600F03D0316FBE
S31500002D003046FFF7AFFD002070BD104B1B6C5B0219
S31500002D10F2D44FF4001196F888300D4A1160002B5A
S31500002D20EAD001220B4B1A60E6E700BF4C5000A820
S31500002D304C6000A8245001A8246001A8402002A8E5
S31500002D40004000A8205001A8484F00B0000002A88B
S31500002D50206001A8005101A873B50C46D1070546AD
S31500002D60164601D502F030FAF2030FD521684B1C46
S31500002D7008D101A9284600F083FE08B9019B23600B
S31500002D8002B070BD284600F067FEF9E701A92846A3
S31500002D9000F048FE08B9019B23600020F0E7000020
S31500002DA0F8B5114D0F784C782E68FEF753F90246A8
S31500002DB00E49FFF741FD0B2808D00C2801D0092841
S31500002DC007D11046FEF74AF90220F8BD0B6CDB036B
S31500002DD0EFD42406B3B244EA07441C4310462C60E1
S31500002DE0FEF73CF90020F0E7F44E00B0000002A820
S31500002DF070B5044600F1AC060868C4F8AC008B88D0
S31500002E000846A4F8B0308B88C4F83C31FF236371C0
S31500002E1001F01AF9054670B9304601F0FBF805468F
S31500002E2048B9204601F08EF90121A4F8B00004F15A
S31500002E30800002F07FFA284670BD38B5054690F846
S31500002E40AC000C46032813D0FF2913D001F06CF90F
S31500002E50A04204D895F8AC0001F066F904466C71FE
S31500002E60204601F073FAA0F1FF035842584138BDDD
S31500002E700220FCE70120FAE738B590F8AC300446AA
S31500002E80032B37D0C56E01718DB3C36F1BB990F894
S31500002E90B8308B4205D3B4F92A21B5F912309A42DB
S31500002EA011DD002294F8B8102046FFF7C6FF05464C
S31500002EB0D8B9E0662046FFF7D3FA01462046BDE8BA
S31500002EC03840FFF7E9B900222046FFF7B6FF05466E
S31500002ED058B9094B1B78012B07D8204601F032F967
S31500002EE0012104F1800002F025FA284638BDFF23AF
S31500002EF04371FAE70225F8E7FE0100200346D0F801
S31500002F00AC000860B3F8B03000208B80704700003A
S31500002F102DE93048436A86B0012B6ED004464E49EF
S31500002F2001F0C0FD01230022E56E84F8B430A989C2
S31500002F30238920675B1A9BB2D5E9011505FB0311AE
S31500002F40464DC4F8BC102D68A4F8C430A842C4F895
S31500002F50C02017D058B103684BB103693BB19968DB
S31500002F60D3E90023C4F88C10C4E9202304E000232D
S31500002F70C4E92033C4F88C3001462046FFF772FCC2
S31500002F80D4E92F1201AB204601F05AFF00282FD1B9
S31500002F90334AFFF751FC01380B28FAD9536913F06D
S31500002FA0060FF6D12F4A3049136CDD01FCD40B6CA9
S31500002FB0D807F9D401A904F1BC0002F0B5F805461A
S31500002FC0B0B9B4F8C420294B29491A642378E26EB3
S31500002FD060F3000323700B68526911685A1C11D004
S31500002FE0481C1ED08B1C04D0204600F035FD00E0A6
S31500002FF00225284606B0BDE830880025284606B0DA
S31500003000BDE830884A1CEDD1D4E93823002003F00E
S31500003010800150EA010309D1237843F001032370AC
S31500003020E7E71946204600F017FDEDE74FF480313B
S315000030302046FFF735FBD4E9382302EA000B03EA02
S31500003040010C5BEA0C03D4D00A495A466346A4F144
S315000030500C0009688847CCE7FC4F00B0200500202B
S3150000306000C001A8000002A800C002A8008001A8B4
S315000030700C020020F00100204FF4807103F02EBCFA
S3150000308070B54FF6FF76114C002908BF314623680C
S31500003090254603F007039A1D012393409BB29942EC
S315000030A009D9B14208D140F6FF7363620B46A0F816
S315000030B02031184670BD0B46696A5A1E21F47F619D
S315000030C021F00F0192B20A436A62F0E70C0000AAEF
S315000030D0064B18681A6A00F00700831D0120984005
S315000030E0C2F30C03C01A80B2704700BF0C0000AADE
S315000030F0024B186AC0F30C00704700BF4C0000AAD0
S315000031000846114610F0030210B514D1B3FA83F342
S31500003110192B05D0C3F11902D2B2062A28BF0622FE
S315000031200124931D9C40A4B2A14228BF214600F071
S3150000313065FD204610BD0124FBE7084611F003019A
S3150000314010B512D11388B3FA83F3192B05D0C3F146
S315000031501901C9B2062928BF062101238C1DA340E7
S31500003160138000F069FD002010BD0120FCE700007F
S3150000317001214FF02A43084AD3F8183191624FF4DF
S31500003180005102F5005224325B07116042BF04224F
S31500003190024B1A60704700BF0C0000AA181100AA63
S315000031A02DE9F34104460D461646984600F0D3FB3A
S315000031B00746B8F1000F10D02046FFF7D9FF47B1F8
S315000031C0114B02A99B6E042241F8043D0023FFF730
S315000031D0E7FF2946204600F0CBFB0C48294603684A
S315000031E0046A03F007039A1D0123C4F30C049340F9
S315000031F01C1BA4B2B44228BF3446224600F02AFD66
S31500003200204602B0BDE8F081004001A80C0000AAEB
S3150000321038B54B7805460C46DBB9FFF7DFFCA378DB
S31500003220DBB940F6FF72144B5A62E378CBB940F62D
S31500003230FF72124B5A62602203F17E4303F5A043EC
S315000032401A60402203F5E73303F5FA731A6000208B
S3150000325038BD1846FFF798FCE1E72846FFF788FFD8
S31500003260E3E76022064B1A60402203F5D73303F5E5
S31500003270FA731A60EBE700BF0C0000AA4C0000AA24
S315000032804C6000A838B54FF02A434FF48064002004
S31500003290D3F8185103F5045318331C60064B186015
S315000032A002F08CFD4FF40052044B1A606A0544BFCD
S315000032B0A3F658731C6038BD1C050020702000AAB8
S315000032C0082310B1024A13607047024A1360704720
S315000032D0401002A8402002A810B514460846012155
S315000032E001F0D2FC2046012101F0CEFC002010BDE9
S315000032F04FF480624FF6FF7CF8B5374B374E056FBB
S315000033001A60D6F80431364AC3F381231370D6F80F
S3150000331008318689C3F38123664504460F465370F8
S3150000332004D0304B1B680BB1314698472E4E33689C
S31500003330AB4248D02D4B1B6833B1002D45D02968D0
S3150000334001B1A96820469847236F13B11A68022A6B
S3150000335017D8A4F10C00FEF771FC01F041FF072518
S31500003360204600F0EFFE47B3214B93F84720A2B961
S3150000337006200122246F1F491F4B346008601A7013
S31500003380F8BD5A6AC2F307200028E6D01B6AD2B2FB
S3150000339002FB03F2B2FBF0F0DFE7104A93F8443089
S315000033A0D2F80C01C0B2FF2813D098422CBF0020DF
S315000033B001203C21FFF706FADAE7294604F18000EE
S315000033C001F0B8FFD0E70125CAE72946204698470D
S315000033D0BAE70120EDE700BF4C2002A8004000A894
S315000033E024050020280500202005002014050020C3
S315000033F0F84E00B0786000A81805002001F0B2BAB7
S315000034004FF480130021064A06481360064AC2F8A4
S31500003410CC1002F5025234321360482203F05DBE2E
S31500003420B86000A8F84E00B0004000A82DE9F341AE
S3150000343088460446002857D003234FF0641280F8CC
S31500003440B8304FF6FF73C0E92822C0F8A820284AF2
S315000034504FF0FF378374A0F83231038313804FF0A7
S315000034604023C0F848710782D3F8843000F10C0677
S3150000347003F0C003802B35D1304602F0D7FA304630
S31500003480FFF7BEFF60221B4B04F5AA71DA643046D3
S31500003490FFF7BEFEA26A054639463046FFF7CEFB69
S315000034A00E234FF00042CDE9003380231046194623
S315000034B002F0DCF800F012FE85B92046FEF77CFA31
S315000034C0054658B994F90E103046FFF73BFB054602
S315000034D0B8F1000F02D008B92046C047284602B00E
S315000034E0BDE8F0810225F9E784F8AC00FFDE00BFF5
S315000034F030050020004000A870B50C46054600F1D6
S3150000350080060988943001F0F9FE6188208005F173
S315000035109C0001F0F3FEA188608005F19A0001F09D
S31500003520EDFEE188A08005F1980001F0E7FE218913
S31500003530E080304601F0EEFE61892081304601F0E0
S31500003540F1FE07216081304601F0F4FE002070BDD7
S3150000355000F092BF4FF6FF72B0F82631934211D0B9
S31500003560094A0A49526E100CC2F301120132B3FB2A
S31500003570F2F30880064A074907481B0408601360EF
S315000035800020704703207047004001A83005002046
S31500003590645001A8646001A80000FFFFF7B5054666
S315000035A00E461446FFF7C4FA002800F09D804FF43B
S315000035B00061284603F092F938B14FF400720121F8
S315000035C04A4B08461A60FEF799FD31462846FEF733
S315000035D063FE0646002870D12B789B0601D4002C8A
S315000035E044D04FF44062424B1A6014F0020204D1F8
S315000035F0404B41491B789B020B604FF440613F4BA7
S31500003600196022B93B4B3E4A5B789B02136002F07D
S3150000361087FB4FF4806314F0040F14BF394A3A4A0B
S31500003620324F13600422402314F0400F3A6014BF57
S31500003630364A374A20461360FFF788F92846FFF7CF
S315000036401BFD38B14FF4807314F0010F16BF314AD9
S315000036503B601360A70602D52846FFF77BFF0034C0
S3150000366018BF01242B7864F345132B70284600F00D
S315000036706FF9F8B12846FFF7FFFCD8B14FF40031D7
S31500003680284603F02BF900280CBF0123022303224E
S3150000369001A9214800F01DFB9DF804101F4A01F006
S315000036A00703052B9DF8053012D1080708D443F40B
S315000036B080735360002000F09DFC304603B0F0BDDF
S315000036C059070BD49DF8063043F480735360F1E735
S315000036D003F03001202904D1DB07F3D54FF48073C2
S315000036E0F4E79DF80630F1E70226E6E7402002A857
S315000036F0046100A824050020045100A8086100A860
S31500003700085100A8245001A8246001A888D000A868
S3150000371088E000A8401002A80C0000AAD44E00B011
S3150000372073B506461D46FFF739FF044688B995E886
S3150000373003006A4682E803009DF80430B6F89A1042
S31500003740012B034607D1884205D20094104602F0A9
S315000037509BFA02B070BD5B1A0093F7E74FF6FF7154
S31500003760084A10B513888B4209D00748074C1B043A
S315000037700460A0F5805003600020118010BD032076
S31500003780FCE700BF30050020646001A80000FFFFD1
S315000037904C4B2DE9F3471C6881468A46154604B111
S315000037A00C348021484801EA0A0300EA090213435F
S315000037B04BD0002309F00042134309D0434B1B684A
S315000037C003F07F43B3F1007F02BF0222404B1A6031
S315000037D0002309F00102134328D04FF0000800220D
S315000037E0002300210120CDE9008801F03FFF0120E0
S315000037F001F0B0FA414660810120FEF77FFC354BAF
S315000038001B6C5A0208D4E36913F0800F4FF40013BF
S3150000381014BF314A314A136031490868FFF716F878
S3150000382000230B60237843F00403237000220AF080
S315000038308003134309D001212046FEF731FF2AF009
S31500003840800749EA000947EA010AD4E9382309EA68
S3150000385002000AEA030102460B46134306460F46D8
S3150000386016D0204BA4F10C0019683B46884700236C
S3150000387006F0080213431EBF00221B4B1A600823E2
S315000038801A4A1F40164056EA070301D0FFF766FFA3
S31500003890EB070AD51649174A086800211368116014
S315000038A00121154A117003B1984715F00E0F06D085
S315000038B03B21002002B0BDE8F047FEF783BF02B00F
S315000038C0BDE8F0870005002001000080F44E00B03E
S315000038D0081002A8000002A8205001A8206001A834
S315000038E02C050020F00100201C0500200000C0BFB0
S315000038F038050020340500203205002008B50A4BA3
S31500003900D3F84C315A1C0ED05B000CD40320FFF7C1
S3150000391091F84FF08062054B1A60012243F8382C6B
S31500003920022243F8242C08BD0080E00F4C1002A8A8
S315000039304FF40022014B1A60704700BF402002A8D6
S31500003940024B186CC0F3C040704700BF000002A8CD
S31500003950802102F0C3BF4078053801288CBF0020C3
S31500003960012070470022014B1A7070473C05002069
S3150000397030B52A4B9A691C4612F0060F04D04078DF
S31500003980042802D900225A6130BD12F004053DD048
S315000039900B7813F0200300D08B78920719D50B789B
S315000039A003F00F03072B33D14B78022B30D98B78DA
S315000039B003F03F03012B2BD9CA7812F0040F27D04E
S315000039C012F0010F14BF0A230423920748BF0633DF
S315000039D0CB5CEBB1002D14BF02210121042840F677
S315000039E0FF7003F01F0208BF5200013A40EA02329C
S315000039F00B48026542F20C004FF47065084A090252
S31500003A00155041F20C0011506361BDE72B46C4E727
S31500003A100023034A01211365ECE700BFA04E00B066
S31500003A20004000A8C36E4BB15B693BB11B68002028
S31500003A309A1C08BF4FF0FF330B6070470120704798
S31500003A40044BC3F8881219B142F20102C3F82822C6
S31500003A50704700BF004001A838B50C46054600F087
S31500003A6073F82146FFF7ECFF45B1EB6E33B15B69A6
S31500003A7023B1621C08BF6FF001041C60002038BD32
S31500003A80034BD3F8483201B10B601946FFF7E4BF88
S31500003A900080E00F07B50A4B1A7808236AB9094A6D
S31500003AA0136000230193084B186800B10C3001A97C
S31500003AB0FFF7E6FF03B05DF804FB044AF0E700BF3A
S31500003AC0F4010020FC1302A800050020FC2302A834
S31500003AD038B5044601F076F8E0782179164A40EACE
S31500003AE00143C2F8DC34E579A37943EA0543C2F819
S31500003AF0E03423781BB100230422FDF77FFB6378B3
S31500003B002BB100230422E179A079FDF777FB227817
S31500003B1001236AB1094A13606278022352B1074A47
S31500003B201360A278064B1A70FFF7B4FF002038BD69
S31500003B30044AF0E7034AF3E700C00340D8D4034041
S31500003B40F4010020D8E40340014B1878704700BF09
S31500003B50F40100204FF480330A4A1360A2F6FC7287
S31500003B601360094B9A68D1B2C2F3072299659A6528
S31500003B7004229A6500229A659A659A659A659A65FD
S31500003B80704700BF142100AA4C0000AA2DE9F74F88
S31500003B9006681C469DF8303006F007060193B31DF3
S31500003BA001269E40771E8A46436804EA0701A6EB73
S31500003BB0010843F0005B424505469146594418D931
S31500003BC04246504603F07EFAA9EB080259460AEB34
S31500003BD0080003F077FA019B43B14C443E4334405E
S31500003BE0EC60AB68A3421CBF0223AB6203B0BDE826
S31500003BF0F08F504603F066FAEDE7000038B50C4C3E
S31500003C000D4622606060FDF725FA4FF02A43002238
S31500003C10D3F81431E2605B075CBF0422054BA56054
S31500003C2058BF1A60FDF71AFA0DB10223A36238BD18
S31500003C300C0000AA142100AA40F6FF72034B18607C
S31500003C40034B196058605A62704700BF4005002058
S31500003C504C0000AA032A2FD9436810B48468234471
S31500003C605B4203F00303D21A53B10C78012B846133
S31500003C7005D04C78022B84611CBF8C788461194472
S31500003C80032A0CD9131F23F0030304330B4451F802
S31500003C90044B99424463FAD102F003024AB10B780D
S31500003CA0012A836105D04B78022A83611CBF8B7879
S31500003CB083615DF8044B704752B10B78012A83612A
S31500003CC006D04B78022A836102D08B7883617047D5
S31500003CD0704737B5002514460095FFF757FF204675
S31500003CE003B030BD402938B514464FF001030BD858
S31500003CF0074D0A46AB6201462846FFF7ABFF2CB1DB
S31500003D0004230020AB6238BD1846FCE72046FAE7DC
S31500003D10CC0000AA10B5FDF79DF90122194B1A49EE
S31500003D209A629A661A64596407215966174B184CA9
S31500003D30198000231749A4F6FC740B804FF4A021C8
S31500003D40C4F8FC1F216014490B60144B1B6C5C0209
S31500003D5012D54FF48004124B12491B680C607BB1DC
S31500003D60996A090608D44FF4001493F894300E4962
S31500003D700C600BB10D4B1A60BDE81040FDF76EB933
S31500003D80DB69FFDE4C0000AA48050020CA050020BA
S31500003D90142100AAC8050020CC050020000002A8B6
S31500003DA000050020402002A8206001A8005101A8BB
S31500003DB007220B4BF0211A8000220A4B1A800A4B6D
S31500003DC01A604FF4005258605A62084A1160A021E6
S31500003DD0A2F58052116001229A62FFF79BBF00BFD5
S31500003DE0CA050020C8050020CC0000AA486000A82B
S31500003DF02DE9F0410446A8B1FDF72CF9454E464B96
S31500003E003188032C01F07F0202F0780705461F4433
S31500003E10DFF828C169D1DCF800E0BEF1000F04D15B
S31500003E20FDF71CF90320BDE8F0812EF00104DCF853
S31500003E30000020F00100A0425CD10023CCF8003045
S31500003E402388BC426FEA43436FEA5343238047D13A
S31500003E50324ADFF8ECC01388ACF18008CF18083B73
S31500003E609BB204F10801F81A614528BF4146082BA8
S31500003E7080B204D9B1F900E0BEF1000F45DB138032
S31500003E8022882749C2F30C02A778CA604FF4802221
S31500003E90C0B23080C8644B66224B07F007071A6031
S31500003EA04FF02A43D3F81431D90301D5FFF752FE58
S31500003EB0042F15D14FF480011B4B1C4A1B6C1C4B65
S31500003EC01B6811601BB39A6A120609D44FF40011DD
S31500003ED093F89430174A116013B10122164B1A60F9
S31500003EE02846FDF7BBF800209DE7601E012898BF15
S31500003EF03C469CE7A21AD31A084A48BF8033128868
S31500003F00083A9A429CDC28468AE70C46A7E7DB6912
S31500003F10FFDE00BFC805002048050020CA050020B6
S31500003F204C0000AA142100AA000002A8402002A802
S31500003F3000050020206001A8005101A8CC05002042
S31500003F40C80500200F48104A038812880F491A44F2
S31500003F50073A02F078020A4408330D499BB20380FF
S31500003F604B624FF4802190780A4B00F0070004283A
S31500003F70196003D10849CB681B03FCD4074B1A60B0
S31500003F80704700BFCA050020C8050020480500206C
S31500003F908C0000AA142100AA000002A8CC0500206B
S31500003FA010B5054C206828B1C30701D4FFF720FFE0
S31500003FB00023236010BD00BFCC0500204FF48033E2
S31500003FC00A4A1360A2F58052043A1360084B1B6A32
S31500003FD0C3F30C03782B07D84FF02A43D3F81431D8
S31500003FE0DB0301D5FFF7B6BD704700BF182100AA55
S31500003FF08C0000AA70470000054B3121D3F84C0114
S31500004000431C14BFC0F380700120FEF7DBBB00BF6A
S315000040100080E00F034B1A6802609B8883800020B3
S31500004020704700BFFE010020064BD3F8F83720B9D1
S3150000403083F40030C0F340407047431E5842584155
S31500004040704700BF000002A810B5044620220021D8
S315000040501B4803F042F82278022A09D10020FFF714
S31500004060E3FF88B90120FFF7DFFF002818BF012210
S315000040701046FFF7D9FF134B134938B903221A70BC
S31500004080FF2301200B7010BD0022F1E760881A7033
S31500004090588000200D4B012AC3F8CC004FF0FF03D7
S315000040A00B704FF007010A4A0A4B11600CBF04223D
S315000040B001221A600122084B00201A70E3E700BFB4
S315000040C0C04F00B0FE010020FC010020004001A806
S315000040D0FC2302A8FC1302A8D10500204FF63F726C
S315000040E008B50D4BD3F8FC3793420CD00B4AC3F3FB
S315000040F001111170C3F342320732C3F3042303EBF9
S315000041004213074A137000F0B1FD41F66A03B0FB93
S31500004110F3F0044B186008BD000002A80702002057
S3150000412006020020D405002020B1012804D1034B4B
S3150000413018787047024BFBE7002070470702002003
S31500004140060200202DE9F74FD0F83C11704B0229EA
S3150000415038BF02211B680746C3F382139A1E012A41
S3150000416090F8AC6001F1FF3126D99A1F53425341B2
S31500004170684A9E46106894468842674A674D684C6E
S31500004180DFF8BC811AD11078984217D12878B0424E
S3150000419014D1D7F8400188B1DFF89C91D9F8CC90BA
S315000041A048450BD197F805902078814506D1B8F897
S315000041B0040003B0BDE8F08F0123D9E7CCF8001066
S315000041C082F800E0002B00F0918004234FF07F403E
S315000041D0544A1360544B18607B791B061360002306
S315000041E04FF08050514A4FF47A7C1060504A0CFBD5
S315000041F001FCD2F800E0FA2219044A434FF00A0AF9
S31500004200B2FBFEF20AFB02FA0CF2E73CBAFA8AF2B9
S31500004210BCFA8CF9A9EB0209B9F1000FD2BF0F2243
S315000042202AFA09FAC9F10F02D4454FF0FA0C03F144
S31500004230010B38BF02F1FF3258004FEA4B0B0BFA65
S3150000424002FB90400CFB00F00CFB0BFC4FF00A0A43
S31500004250B0FBFEF0BCFBFEFE4FEA022C4CEA021C51
S315000042604CEA020240F6FF7C0AFB0EFE41EA0321FD
S31500004270DFF8D09019432F4BC9F804E0C3F800C00B
S31500004280A3F580531A602C4B0AFB00F0C3F8CC1040
S31500004290D3F8CC20294BDFF8B0B09A6100F57A7AD2
S315000042A0C7F8401100F6AC500193CBF800A000F01F
S315000042B0CDFF019BC9F80000D861D9F8040000F5CC
S315000042C07A7000F0C3FFD9F80030C01AC9F80400AC
S315000042D04FF47A70DBF800302E70B3FBF0F3A8F8D9
S315000042E004307B79BAFBF0F0237062E798F800900F
S315000042F07A794846FFF718FF824228BF0246B9F18D
S31500004300000F0CBF2023102353FA82F3DBB267E7BA
S31500004310204001A8F8010020D00500200502002059
S3150000432004020020B81002A8B82002A8B41002A8FF
S31500004330D4050020C46001A8004001A8C04F00B009
S31500004340FE010020884F00B0D805002010B50D4BA7
S31500004350024618780C4C032802D1FF20207010BDAD
S31500004360FFF7E2FE904228BF10462378C0B2834290
S31500004370F5D0064B2070186800B10C30FFF7E2FE4E
S315000043802078ECE7FE010020FC010020000500205B
S3150000439038B5054600F016FC01213A20FCF758FB1B
S315000043A02F4C304B1D702378013B012B0CD801227A
S315000043B0237CE17B9A4030234B4342F2100103F108
S315000043C0804303F570335A500022274BC3F87C24F0
S315000043D0002D3DD063688BB300F048FC626800EBAB
S315000043E05203B3FBF2F3013B1B0243F0F8032278BE
S315000043F0022A25D0032A27D0012A2CD1072243F0EE
S3150000440002034FF6FF7019490860A1F580510B6051
S3150000441015499307C1F87C2409D50122207CE37B4A
S315000044208240302000FB031341F210015A504FF036
S31500004430804395B10E4A1360002038BDF823D6E7B5
S3150000444043F001030622DCE743F005030422D8E724
S315000044502A46F823D5E70022D3E7064AEBE700BF52
S31500004460E0050020DC05002000C00340846000A8B1
S315000044704C1002A84C2002A8254AF8B5044603466B
S31500004480164600F11007154618685968083303C523
S31500004490BB422A46F7D11868286000F093FB012139
S315000044A03A20FCF7D5FA00221A4BC3F87C24A17AED
S315000044B0627A42EA0142C3F88824217CE27B42EA1E
S315000044C00142C3F88424207B617B40EA0142C3F8A1
S315000044D080243378032B19D8DFE803F01202060C88
S315000044E000230422FCF78AFE00230422217CE07BC1
S315000044F0FCF784FE01230422A17A607AFCF77EFE93
S31500004500054B1878BDE8F840FFF742BF0120F8BD1B
S31500004510E005002000C00340DC050020034BDB6CF7
S31500004520002BBCBF024BC3F888007047000002A8EE
S31500004530004000A82DE9F84F2F4B304F4FF47A7604
S31500004540BB6000F093FB4FF4FA73B0FBF6F54FF047
S3150000455000096B43DFF8BC804FEA032A4FEA136B6E
S315000045601AEB08004FF00003254A4BEB090102F055
S31500004570E7FBA0F5807304463B6318B92B21FEF7D1
S3150000458021F90124002706FB04F256084FEA052804
S31500004590B8193B4648F1000102F0D2FB194B4FEA2D
S315000045A004681960184B81468A461860240A25B9A2
S315000045B028462B21FEF706F901254FF47A73A8FB4E
S315000045C0036703FB04776C08301947F100012A469C
S315000045D0002302F0B5FB0D4B19F1020619600C4BD6
S315000045E04AF100071860B30843EA8773034A013BA0
S315000045F09363BDE8F88F00BF0011010000C001A859
S3150000460040420F0000060020FC050020F8050020AF
S31500004610F405002020A107001022044BC3F88421D2
S315000046205A600122024BDA60704700BF00E100E0E9
S3150000463000C001A8064B0201134401221A604FF480
S31500004640807303FA00F042F26403024AD0507047C6
S3150000465000E101A800C001A82DE9F047144684B086
S3150000466005460E469A46FCF7F5FC022C00F0C7807C
S315000046700746FCF7F6FC804B8049814AD3F8209028
S3150000468091F8158012685FFA88F8520744BFD3F88C
S31500004690209008F10108FCF7E8FC002208F003036B
S315000046A042EA09024FF000097648CDE90023D0F826
S315000046B000E07549AEFB02230EFB0933DDE90089F4
S315000046C012F10040D1F800C043F100014B469B07B0
S315000046D00CFB0833012C08BF3068194412BFD6F80A
S315000046E000C0013000EB010CA1EB0C0108BFC6F8BD
S315000046F000C0B1F1804FC0F088804FF0004000212B
S3150000470002460B46DFF89CE12CF04046DEF80080BE
S31500004710DFF894E1E6FB0823DEF800E056480EFBDE
S315000047200636D0F838E04FEA9C7C7645304607D905
S315000047300EF1010E0CF1010CB6EB0E000CF0030CA1
S315000047404FF00008E14648EA000849464046DDE9E0
S3150000475000894246A1EB090E8045CDE9020184BFDE
S315000047600EF1FF3E44490EF00303DFF8408188BF97
S31500004770896BD9B2861A08F8051000294CD14FF07A
S31500004780110C3D49029A05F110031B0101EB051EB0
S31500004790CEF80C2141F803C00B6A009AD1F864C028
S315000047A09A1AB2422AD34FF48073AB401CEA030F25
S315000047B024D118F80520002A47D1002C4DD041F20B
S315000047C064021AF0010F8B5008D041F61F7240F2B6
S315000047D001102E4B2E491A6008601A601AF0020F5B
S315000047E006D02A4B2B4A2A492B481A6008601A60C1
S315000047F01AF0040F1EBF0122284B1A613846FCF737
S315000048002DFC012004B0BDE8F0873846FCF726FCF5
S31500004810002004B0BDE8F0871AF0010F1EBF41F674
S315000048201F7C1A49C1F800C01AF0020F1EBF1749B3
S31500004830DFF860C0C1F800C01AF0040F1EBF4FF0C9
S31500004840000C0D49C1F878C099E741F26402384678
S315000048508B50FCF703FC0120D4E74FF0010C42F229
S3150000486064060F4A2D012A443846C2F800C08B510F
S31500004870FCF7F4FB2046C5E700C001A8884E00B04F
S3150000488064C001A8F4050020F805002074E001A822
S3150000489074D001A800001F1F00000101000002A83B
S315000048A000E101A8FC0500200006002008180020F1
S315000048B0034B10300001185800F00100704700BF8C
S315000048C000C001A801F0F0711030034B41F0030164
S315000048D000011950704700BF00C001A838B5FCF7A9
S315000048E0C0FB0A4B0A4A1D6A547D0A4AE4B21268A2
S315000048F0520744BF1D6A0134FCF7B7FB002204F0DF
S31500004900030342EA0500194638BD00BF00C001A8EE
S31500004910884E00B064C001A808B52220FFF7FEFD4E
S315000049204FF48022014BDA6008BD00BF00C001A829
S315000049300A4B2DE930481C68094B444304EB81744B
S3150000494000211D68A5FB00BC05FB01CC1BF1004244
S315000049504CF10003E018BDE8308800BFF8050020E0
S31500004960F405002008B5FFF7B9FFBDE80840FFF7DA
S31500004970DFBF00002DE930484FF0004400250E4B04
S3150000498020F040421B680D49E2FB03450C4B896B46
S315000049901B6803FB02528A4214464FEA907304D9FD
S315000049A001310133541A03F003034FF0000B19468B
S315000049B04BEA0400BDE83088FC05002000C001A8D1
S315000049C00006002038B50446FFF7CCFF0546FFF782
S315000049D0C9FF401BA042FAD338BD000008B50B4BF7
S315000049E00B4918680B4B1A68121A00F1304002F096
S315000049F069FB094B00211868084B1A68BDE8084096
S31500004A00121A00F1304002F068BB00BFACB20000E1
S31500004A10B0B20000A8B20000A4B20000A0B200002C
S31500004A2008B5074B07491A684FF03040920002F06C
S31500004A3049FBFFF7D3FFBDE8084000F017BD00BFF4
S31500004A409CB200000085000070B539B900230360F0
S31500004A500123037170BD013501EB85010C68651CEE
S31500004A60F4D0C4F30266B342C4F30745F3D1A4B24B
S31500004A70A242F0D304EB8506B242ECD2141B24F01A
S31500004A80030421444B6803600023E2E7044BC0F3B0
S31500004A90016233F8123080B240EA0340704700BF2B
S31500004AA0408400000B0CB3F5284FF7B507460D46BA
S31500004AB08EB29AB213D04AF601018B4211D04AF651
S31500004AC002039A420FD0B2F5304F0CBF03240424E0
S31500004AD0F96E51B9B96EA1B9286803B0F0BD0024CA
S31500004AE0F6E70124F4E70224F2E723463246096892
S31500004AF06846FFF7A9FF9DF80430002BEAD100981D
S31500004B00EBE72346324609686846FFF79DFF9DF8A6
S31500004B100430002BE0D1F2E707B501A8FCF7E2FB71
S31500004B2047F6E0720C4B1A6042F62072A3F58053EA
S31500004B301A60C822094B5A65094B0A4AD3F86032F3
S31500004B40DBB2FF2B08BF03239B0043F47F53C2F85D
S31500004B50F83303B05DF804FBE42002A8008001A846
S31500004B600080E00F000002A838B50023104C012198
S31500004B7023643A206364A364FBF76AFF01220221DF
S31500004B800C4D2A600C4A11602246E368C3F30363A6
S31500004B900D2B01D0002BF8D111239363074B1B6813
S31500004BA098474FF0806301222B60054B1A6038BD91
S31500004BB0000002A8141002A8281002A8080200206B
S31500004BC0142002A801231049C1F880328A6E6FEAC8
S31500004BD052326FEA42328A660C4A53604FF02A42DA
S31500004BE053600B4A5360A2F580425360A2F54042DF
S31500004BF0536002F5C032536002F580425360A2F55D
S31500004C0000425360704700BF0080004000C000A80B
S31500004C10004001A808B5FFF7D5FFFFF77DFF032287
S31500004C200D4B4FF460711A604FF4C0120B4BDA64EF
S31500004C30012203F582530C331A60094A11604FF4BE
S31500004C4000721A60FEF726FF0222064B5A64802283
S31500004C50054B5A6008BD00BFE05001A8000002A83D
S31500004C60141002A8008002A800E100E008B5FCF7D5
S31500004C7053FC044B1B6FC3F300430133B0FBF3F04B
S31500004C8008BD00BF00800040F8B50D460446F0B1EF
S31500004C90FEF768FE0DB901252FE0002229491346CB
S31500004CA0294804E00B2AF6D030F81230013251F8C8
S31500004CB02250A542F6D1254A116CC907FCD49B00A7
S31500004CC003F58043403313600122214B1A60F8BD7F
S31500004CD0090F6068083407290FD8DFE801F00A04D5
S31500004CE008280C262B2EC04303F5005301E01A6852
S31500004CF05040186001E0FFF765FE21684B1CE6D0C6
S31500004D000846C1F30746FFF7C1FE012E0346DFD969
S31500004D102246B600A119031B9F1852F8040F8A42B7
S31500004D203860F9D104363444E7E705FA00F003F5B4
S31500004D308053DEE705FA00F0D6E71A6830EA020289
S31500004D40FBD1DAE7040600203406002000C002A8E2
S31500004D5040D002A82DE9F843194E0746B146DFF8C0
S31500004D606880FCF777F9F568D8F818309B09C3F323
S31500004D7009049B0544BF6FEA84546FEA9454D9F83A
S31500004D800C3024B2C3F30363023B012B11D8C5F3E5
S31500004D900365023D012D8CBF00250125FCF75EF958
S31500004DA014F5007F07D10DB1002FDAD12046BDE8FA
S31500004DB0F8830025F2E7034B002D08BF1C46F5E7F4
S31500004DC0000002A800FEFFFF00C000A8044BD3F8B5
S31500004DD0AC3010B1C3F30332027003F00F0070471A
S31500004DE0000002A8024B1B6803B11847704700BFBA
S31500004DF04C0600204FF604014FF60502044B012035
S31500004E001B6C9BB28B4208BF1346024A136670475F
S31500004E100080E00F00C001A84FF028425169936955
S31500004E2002F500520B4014321360704708B5FFF7C5
S31500004E30F3FF4022014B1A6008BD00BF142000A8F2
S31500004E402DE9F84F0C46AA4AAA4922448A4200F2A2
S31500004E502B81D0F870801E46B8F1000F04D0D8F828
S31500004E600030032B00F29780A34AA449976BA44B0A
S31500004E70D1F81C80A249D3F8EC20C7F314030F6EB7
S31500004E80550007F0070748BF43F40013032F28BF58
S31500004E9003279C4A43EA8757D2F8E420900748BF85
S31500004EA047F0807747F00077FCF766FB0546002859
S31500004EB000F0E180944B954A9842146000F0DE8041
S31500004EC002460023E004610B01F03AFF3060C7F3AD
S31500004ED01300A0FB05234FEAD24B4BEA433BF902F2
S31500004EE08B48DFF840A24CBF5C44A4EB0B04C0F82F
S31500004EF000B0CAF80040B8F1000F00F08780FA0150
S31500004F004FEA540E48BFA108824844BF74468E46F5
S31500004F10C7F3815110F801905A464FEA896948460D
S31500004F2000234FF0000CC11702FB01F109FB03112E
S31500004F30ABFB092312EB0E000B4443F100012246A2
S31500004F40634601F0FDFEBB02C0F3130070604CBF68
S31500004F50C42040F20710704BD8F81810A3FB04C306
S31500004F605B0900FB03F34FF4FA72B3FBF1F702FBA4
S31500004F7007F2FA32A2FB0123A4FB00018B4208BF11
S31500004F80824238BF0137FBB243F40062B26073B9A4
S31500004F900120BDE8F88F042BD8F8287084D1C7F318
S31500004FA08253032B28BF032363F398577CE7B4FA95
S31500004FB084F2D8F81CC00E2AA3FB0C897EDDE2031E
S31500004FC04846002150EA010709BFB2FBF8F21F4626
S31500004FD0570007FB0337ACFB078918BF0A46210CAD
S31500004FE02004494508BF404509D35C002744ACFB73
S31500004FF00789494508BF404502F10102F6D2C2F3CE
S315000050000E0243F0082343EA0233B360FCF784FA46
S31500005010DAF800400746B4FA84F3D3F1020358BF26
S31500005020DC403E4B9C4288BF640868B3B4FBF5F392
S315000050306421B4FBF0F205FB134001FB00F007FB13
S315000050401244854201FB04F100D9013B8F4233D85B
S31500005050581E511E40085B08490852080002090202
S31500005060013B013A40EA031341EA0212C6E9033260
S315000050700020BDE8F88F0220BDE8F88F284AA4FB7F
S3150000508002239B09336022E72B21FDF79BFBB4FB30
S31500005090F5F3642205FB134102FB01F295420AD99E
S315000050A0394622460127D0E70E210020FDF78AFB6C
S315000050B00220BDE8F88F2246013AC9E7C2F10F0780
S315000050C0C7F1200B09FA0BFB28FA07F0A7F1200E0F
S315000050D029FA0EFE40EA0B0040EA0E0029FA07F113
S315000050E010F1010841F1000904FA02F268E700BF75
S315000050F0006CCA88807C814A008001A8E04F00B01D
S31500005100004001A8000002A800F04902580600204D
S315000051105006002048840000D34D621040BE402552
S315000051200A3BB2DF5406002010B5044686B049B9E2
S31500005130174B186800B10C30D4E9001201ABFFF729
S315000051407FFE01A90A68134B5A6362685A64124BC0
S31500005150DB6963B1114B124A1A604A68A3F58053A2
S315000051601A60104AC3F8E02F8A68203B1A604FF491
S31500005170EE630D4A1360C868A2F5805210600020E5
S31500005180C2F8F83F0A69094B1A6006B010BD00BFA5
S3150000519000050020008001A8E04F00B00C6101A8C6
S315000051A0FFFF0F00FFF8FF0F742102A86C1102A881
S315000051B0704700000022034BDA7602229A762322F9
S315000051C05A767047484F00B0044AD368C3F3036366
S315000051D0022B04BF80231361704700BF000002A8A2
S315000051E008B51548FFF7C6FB144BD3F83801A3F5ED
S315000051F08033DA6800F40040D2021AD4104A92686A
S31500005200D3F80C11C2F3810211F4806302F101029A
S31500005210C9B218BFD300FF2906D00A49D1F8101128
S31500005220490501D503EBC20300B10333064A1361F6
S3150000523008BD0023F8E700BF40420F00004001A868
S31500005240000001A8004000A8884F00B0094B30B507
S315000052501B68C517A3FB000103FB051110F1807342
S3150000526041F10004580E40EAC410803820EAE0708C
S3150000527030BD00BF5C06002007221A4B2DE9F0471F
S31500005280DA63FFF7F3FC0025C708174C4FEAC75946
S315000052904FEA103A064619EB04004AEB0501134A99
S315000052A0002301F04DFD124BDFF84C9018604EF6CE
S315000052B06020FFF7CBFF4042C9F834000D48FFF7E6
S315000052C059FB68B14108FC01350F661845F1000726
S315000052D0024600233046394601F032FDC9F80C007B
S315000052E0BDE8F087000002A8B2E60E0065CD1D00FD
S315000052F05C06002040420F00884F00B039B143F2EF
S31500005300C823994228BF1946642938BF6421018001
S315000053100846704743F2C823994228BF19460182BE
S315000053200846704743F2C823994228BF194641826E
S3150000533008467047F8B50D46044600287FD011F0A0
S31500005340040647D0438B002B7AD04FF47A7058432B
S31500005350E368A0F5CB500438C01AFFF777FF414F3A
S31500005360E38A7862002B6ED04FF47A705843E36874
S31500005370A0F5CB500438C01AFFF768FF238BF861FD
S31500005380002B63D04FF47A725A43E368A2F5CB52EE
S31500005390043AD21A6368D21A334BD117D3F800C035
S315000053A0ACFB02230CFB013312F1807043F10001C8
S315000053B0430E43EAC113803B3B62BB60E38B002B89
S315000053C047D04FF47A705843A0F5CB500438FFF716
S315000053D03DFF3863AB0719D54FF47A70638A58439B
S315000053E023B1236803F51C5310331844FFF72EFF2F
S315000053F01C4AD062A08B78B34FF47A71E36801FB44
S315000054000030A0F5FA50FFF721FF9062BEB1A38AE3
S315000054102BB34FF47A705843A0F5FA50FFF716FFF6
S31500005420104A218A50614FF47A70484321B12368AB
S3150000543003F51C5310331844FFF708FF9061F8BDBD
S315000054404CF2503089E74CF2503095E74CF250322E
S31500005450A2E74CF25030BAE747F23050D3E747F2B2
S315000054603050DBE7884F00B05C06002070B588B08E
S315000054706D46104C0FCC0FC594E80F0085E80F0061
S31500005480B82200210C4801F028FEC02200210B485A
S3150000549001F023FEFFF78EFE094B1B783BB16D46EC
S315000054A0044E0FCD0FC695E80F0084E80F0008B034
S315000054B070BD00BFC04F00B0484F00B0884E00B06E
S315000054C0D10500202DE90048FBF7C4FD144B1978DF
S315000054D0E9B94FF0000C134BD3E9002302F4084B53
S315000054E05BEA0C0313D110220F4B1A604FF0000C2D
S315000054F00C4BD3E9002302F4807B5BEA0C030BD14F
